{
  "contractName": "Multiswap",
  "abi": [
    {
      "inputs": [
        {
          "internalType": "address",
          "name": "_router",
          "type": "address"
        }
      ],
      "stateMutability": "nonpayable",
      "type": "constructor"
    },
    {
      "inputs": [],
      "name": "WETH",
      "outputs": [
        {
          "internalType": "address",
          "name": "",
          "type": "address"
        }
      ],
      "stateMutability": "view",
      "type": "function",
      "constant": true
    },
    {
      "inputs": [],
      "name": "owner",
      "outputs": [
        {
          "internalType": "address",
          "name": "",
          "type": "address"
        }
      ],
      "stateMutability": "view",
      "type": "function",
      "constant": true
    },
    {
      "inputs": [
        {
          "internalType": "address[]",
          "name": "poolAddresses",
          "type": "address[]"
        },
        {
          "internalType": "uint256[]",
          "name": "percentForEachToken",
          "type": "uint256[]"
        }
      ],
      "name": "swapEthForMultipleTokensByPercent",
      "outputs": [],
      "stateMutability": "payable",
      "type": "function",
      "payable": true
    },
    {
      "inputs": [],
      "name": "getAmountsArray",
      "outputs": [
        {
          "internalType": "uint256[]",
          "name": "",
          "type": "uint256[]"
        }
      ],
      "stateMutability": "view",
      "type": "function",
      "constant": true
    }
  ],
  "bytecode": "0x608060405234801561001057600080fd5b506040516110f53803806110f5833981810160405281019061003291906100ce565b33600260006101000a81548173ffffffffffffffffffffffffffffffffffffffff021916908373ffffffffffffffffffffffffffffffffffffffff160217905550806000806101000a81548173ffffffffffffffffffffffffffffffffffffffff021916908373ffffffffffffffffffffffffffffffffffffffff16021790555050610140565b6000815190506100c881610129565b92915050565b6000602082840312156100e057600080fd5b60006100ee848285016100b9565b91505092915050565b600061010282610109565b9050919050565b600073ffffffffffffffffffffffffffffffffffffffff82169050919050565b610132816100f7565b811461013d57600080fd5b50565b610fa68061014f6000396000f3fe60806040526004361061003f5760003560e01c806305d07033146100445780636c3352561461006f5780638da5cb5b1461008b578063ad5c4648146100b6575b600080fd5b34801561005057600080fd5b506100596100e1565b6040516100669190610b63565b60405180910390f35b61008960048036038101906100849190610858565b610139565b005b34801561009757600080fd5b506100a06105db565b6040516100ad9190610b48565b60405180910390f35b3480156100c257600080fd5b506100cb610601565b6040516100d89190610b48565b60405180910390f35b6060600380548060200260200160405190810160405280929190818152602001828054801561012f57602002820191906000526020600020905b81548152602001906001019080831161011b575b5050505050905090565b806000805b82518110156101a857828181518110610180577f4e487b7100000000000000000000000000000000000000000000000000000000600052603260045260246000fd5b6020026020010151826101939190610d3d565b915080806101a090610e6c565b91505061013e565b5061271081146101ed576040517f08c379a00000000000000000000000000000000000000000000000000000000081526004016101e490610bd1565b60405180910390fd5b8251845114610231576040517f08c379a000000000000000000000000000000000000000000000000000000000815260040161022890610c11565b60405180910390fd5b60003411610274576040517f08c379a000000000000000000000000000000000000000000000000000000000815260040161026b90610bf1565b60405180910390fd5b600360006102829190610619565b60005b84518110156105d4576000600267ffffffffffffffff8111156102d1577f4e487b7100000000000000000000000000000000000000000000000000000000600052604160045260246000fd5b6040519080825280602002602001820160405280156102ff5781602001602082028036833780820191505090505b5090507321be370d5312f44cb42ce377bc9b8a0cef1a4c8381600081518110610351577f4e487b7100000000000000000000000000000000000000000000000000000000600052603260045260246000fd5b602002602001019073ffffffffffffffffffffffffffffffffffffffff16908173ffffffffffffffffffffffffffffffffffffffff16815250508582815181106103c4577f4e487b7100000000000000000000000000000000000000000000000000000000600052603260045260246000fd5b602002602001015181600181518110610406577f4e487b7100000000000000000000000000000000000000000000000000000000600052603260045260246000fd5b602002602001019073ffffffffffffffffffffffffffffffffffffffff16908173ffffffffffffffffffffffffffffffffffffffff168152505060008060009054906101000a900473ffffffffffffffffffffffffffffffffffffffff1673ffffffffffffffffffffffffffffffffffffffff16637ff36ab56127108886815181106104bb577f4e487b7100000000000000000000000000000000000000000000000000000000600052603260045260246000fd5b6020026020010151346104ce9190610dc4565b6104d89190610d93565b60018533426040518663ffffffff1660e01b81526004016104fc9493929190610b85565b6000604051808303818588803b15801561051557600080fd5b505af1158015610529573d6000803e3d6000fd5b50505050506040513d6000823e3d601f19601f8201168201806040525081019061055391906108c4565b60018151811061058c577f4e487b7100000000000000000000000000000000000000000000000000000000600052603260045260246000fd5b602002602001015190506003819080600181540180825580915050600190039060005260206000200160009091909190915055505080806105cc90610e6c565b915050610285565b5050505050565b600260009054906101000a900473ffffffffffffffffffffffffffffffffffffffff1681565b7321be370d5312f44cb42ce377bc9b8a0cef1a4c8381565b5080546000825590600052602060002090810190610637919061063a565b50565b5b8082111561065357600081600090555060010161063b565b5090565b600061066a61066584610c62565b610c31565b9050808382526020820190508285602086028201111561068957600080fd5b60005b858110156106b9578161069f888261079b565b84526020840193506020830192505060018101905061068c565b5050509392505050565b60006106d66106d184610c8e565b610c31565b905080838252602082019050828560208602820111156106f557600080fd5b60005b85811015610725578161070b888261082e565b8452602084019350602083019250506001810190506106f8565b5050509392505050565b600061074261073d84610c8e565b610c31565b9050808382526020820190508285602086028201111561076157600080fd5b60005b8581101561079157816107778882610843565b845260208401935060208301925050600181019050610764565b5050509392505050565b6000813590506107aa81610f42565b92915050565b600082601f8301126107c157600080fd5b81356107d1848260208601610657565b91505092915050565b600082601f8301126107eb57600080fd5b81356107fb8482602086016106c3565b91505092915050565b600082601f83011261081557600080fd5b815161082584826020860161072f565b91505092915050565b60008135905061083d81610f59565b92915050565b60008151905061085281610f59565b92915050565b6000806040838503121561086b57600080fd5b600083013567ffffffffffffffff81111561088557600080fd5b610891858286016107b0565b925050602083013567ffffffffffffffff8111156108ae57600080fd5b6108ba858286016107da565b9150509250929050565b6000602082840312156108d657600080fd5b600082015167ffffffffffffffff8111156108f057600080fd5b6108fc84828501610804565b91505092915050565b60006109118383610935565b60208301905092915050565b60006109298383610b2a565b60208301905092915050565b61093e81610e1e565b82525050565b61094d81610e1e565b82525050565b600061095e82610cda565b6109688185610d0a565b935061097383610cba565b8060005b838110156109a457815161098b8882610905565b975061099683610cf0565b925050600181019050610977565b5085935050505092915050565b60006109bc82610ce5565b6109c68185610d1b565b93506109d183610cca565b8060005b83811015610a025781516109e9888261091d565b97506109f483610cfd565b9250506001810190506109d5565b5085935050505092915050565b610a1881610e5a565b82525050565b6000610a2b603b83610d2c565b91507f4572726f723a2070657263656e7461676520617272617920646f65736e27742060008301527f61646420757020746f2031303025206f722031302c30303062707300000000006020830152604082019050919050565b6000610a91601e83610d2c565b91507f4572726f723a206d757374206265206d6f7265207468616e20302045544800006000830152602082019050919050565b6000610ad1602d83610d2c565b91507f4572726f723a20706f6f6c20616e642070657263656e7461676520617272617960008301527f20646f65736e74206d61746368000000000000000000000000000000000000006020830152604082019050919050565b610b3381610e50565b82525050565b610b4281610e50565b82525050565b6000602082019050610b5d6000830184610944565b92915050565b60006020820190508181036000830152610b7d81846109b1565b905092915050565b6000608082019050610b9a6000830187610a0f565b8181036020830152610bac8186610953565b9050610bbb6040830185610944565b610bc86060830184610b39565b95945050505050565b60006020820190508181036000830152610bea81610a1e565b9050919050565b60006020820190508181036000830152610c0a81610a84565b9050919050565b60006020820190508181036000830152610c2a81610ac4565b9050919050565b6000604051905081810181811067ffffffffffffffff82111715610c5857610c57610f13565b5b8060405250919050565b600067ffffffffffffffff821115610c7d57610c7c610f13565b5b602082029050602081019050919050565b600067ffffffffffffffff821115610ca957610ca8610f13565b5b602082029050602081019050919050565b6000819050602082019050919050565b6000819050602082019050919050565b600081519050919050565b600081519050919050565b6000602082019050919050565b6000602082019050919050565b600082825260208201905092915050565b600082825260208201905092915050565b600082825260208201905092915050565b6000610d4882610e50565b9150610d5383610e50565b9250827fffffffffffffffffffffffffffffffffffffffffffffffffffffffffffffffff03821115610d8857610d87610eb5565b5b828201905092915050565b6000610d9e82610e50565b9150610da983610e50565b925082610db957610db8610ee4565b5b828204905092915050565b6000610dcf82610e50565b9150610dda83610e50565b9250817fffffffffffffffffffffffffffffffffffffffffffffffffffffffffffffffff0483118215151615610e1357610e12610eb5565b5b828202905092915050565b6000610e2982610e30565b9050919050565b600073ffffffffffffffffffffffffffffffffffffffff82169050919050565b6000819050919050565b6000610e6582610e50565b9050919050565b6000610e7782610e50565b91507fffffffffffffffffffffffffffffffffffffffffffffffffffffffffffffffff821415610eaa57610ea9610eb5565b5b600182019050919050565b7f4e487b7100000000000000000000000000000000000000000000000000000000600052601160045260246000fd5b7f4e487b7100000000000000000000000000000000000000000000000000000000600052601260045260246000fd5b7f4e487b7100000000000000000000000000000000000000000000000000000000600052604160045260246000fd5b610f4b81610e1e565b8114610f5657600080fd5b50565b610f6281610e50565b8114610f6d57600080fd5b5056fea2646970667358221220d98401ab631351fadf83e8bc6389c457e0b151738f36d8c58ffbcea8f266f92c64736f6c63430008000033",
  "immutableReferences": {},
  "source": "// SPDX-License-Identifier: UNLICENSED\n\npragma solidity ^0.8.0;\nimport \"./IERC20.sol\";\nimport \"./Irouter.sol\";\n\ncontract Multiswap {\n    Irouter router;\n    IERC20 erc20;\n    address public owner;\n    address public constant WETH = 0x21be370D5312f44cB42ce377BC9b8a0cEF1A4C83;\n\n    uint256[] amountsArray;\n\n    constructor(address _router) {\n        // for now, we put the default router; in the future, we will inidicate in code which to use\n        owner = msg.sender;\n        router = Irouter(_router);\n    }\n\n    // swap eth by percentage for another token\n    // 1~10000\n    // *** use memory or calldata ??? which is better\n    function swapEthForMultipleTokensByPercent(\n        address[] memory poolAddresses,\n        uint256[] memory percentForEachToken\n    ) public payable correctPercentageInput(percentForEachToken) {\n        require(\n            poolAddresses.length == percentForEachToken.length,\n            \"Error: pool and percentage array doesnt match\"\n        );\n        require(msg.value > 0, \"Error: must be more than 0 ETH\");\n\n        delete amountsArray; // for test\n\n        for (uint256 i; i < poolAddresses.length; i++) {\n            address[] memory path = new address[](2);\n            path[0] = WETH;\n            path[1] = poolAddresses[i];\n            // router.swapExactETHForTokens(amountOutMin, path, to, deadline);\n            uint256 tokenAmount = router.swapExactETHForTokens{\n                value: (msg.value * percentForEachToken[i]) / 10000\n            }(1, path, msg.sender, block.timestamp)[1];\n            amountsArray.push(tokenAmount);\n        }\n    }\n\n    function getAmountsArray() public view returns (uint256[] memory) {\n        return amountsArray;\n    }\n\n    modifier correctPercentageInput(uint256[] memory percentForEachToken) {\n        uint256 amount;\n        for (uint256 i; i < percentForEachToken.length; i++) {\n            amount += percentForEachToken[i];\n        }\n        require(\n            amount == 10000,\n            \"Error: percentage array doesn't add up to 100% or 10,000bps\"\n        );\n        _;\n    }\n}\n",
  "sourcePath": "/Users/denlie/Desktop/Coding/personal/multi-swap/src/contracts/Multiswap.sol",
  "compiler": {
    "name": "solc",
    "version": "0.8.0+commit.c7dfd78e.Emscripten.clang"
  },
  "schemaVersion": "3.4.8",
  "updatedAt": "2023-01-11T13:38:07.772Z",
  "networkType": "ethereum",
  "devdoc": {
    "kind": "dev",
    "methods": {},
    "version": 1
  },
  "userdoc": {
    "kind": "user",
    "methods": {},
    "version": 1
  }
}