{
  "contractName": "Multiswap",
  "abi": [
    {
      "inputs": [
        {
          "internalType": "address",
          "name": "_router",
          "type": "address"
        }
      ],
      "stateMutability": "nonpayable",
      "type": "constructor"
    },
    {
      "anonymous": false,
      "inputs": [
        {
          "indexed": false,
          "internalType": "uint256",
          "name": "swapFromAmount",
          "type": "uint256"
        },
        {
          "components": [
            {
              "internalType": "address",
              "name": "tokenAddress",
              "type": "address"
            },
            {
              "internalType": "uint256",
              "name": "amount",
              "type": "uint256"
            }
          ],
          "indexed": false,
          "internalType": "struct Multiswap.SwapObject[]",
          "name": "swapTo",
          "type": "tuple[]"
        }
      ],
      "name": "SwapEthForTokensEvent",
      "type": "event"
    },
    {
      "inputs": [],
      "name": "WETH",
      "outputs": [
        {
          "internalType": "address",
          "name": "",
          "type": "address"
        }
      ],
      "stateMutability": "view",
      "type": "function",
      "constant": true
    },
    {
      "inputs": [],
      "name": "owner",
      "outputs": [
        {
          "internalType": "address",
          "name": "",
          "type": "address"
        }
      ],
      "stateMutability": "view",
      "type": "function",
      "constant": true
    },
    {
      "inputs": [
        {
          "internalType": "address[]",
          "name": "poolAddresses",
          "type": "address[]"
        },
        {
          "internalType": "uint256[]",
          "name": "percentForEachToken",
          "type": "uint256[]"
        }
      ],
      "name": "swapEthForMultipleTokensByPercent",
      "outputs": [],
      "stateMutability": "payable",
      "type": "function",
      "payable": true
    },
    {
      "inputs": [
        {
          "internalType": "uint256",
          "name": "ethAmount",
          "type": "uint256"
        },
        {
          "internalType": "address[]",
          "name": "poolAddresses",
          "type": "address[]"
        },
        {
          "internalType": "uint256[]",
          "name": "percentForEachToken",
          "type": "uint256[]"
        }
      ],
      "name": "getAmountsOutEthForMultipleTokensByPercent",
      "outputs": [
        {
          "internalType": "uint256[]",
          "name": "",
          "type": "uint256[]"
        }
      ],
      "stateMutability": "view",
      "type": "function",
      "constant": true
    },
    {
      "inputs": [],
      "name": "getAmountsArray",
      "outputs": [
        {
          "internalType": "uint256[]",
          "name": "",
          "type": "uint256[]"
        }
      ],
      "stateMutability": "view",
      "type": "function",
      "constant": true
    }
  ],
  "bytecode": "0x60806040523480156200001157600080fd5b50604051620018df380380620018df8339818101604052810190620000379190620000d6565b33600260006101000a81548173ffffffffffffffffffffffffffffffffffffffff021916908373ffffffffffffffffffffffffffffffffffffffff160217905550806000806101000a81548173ffffffffffffffffffffffffffffffffffffffff021916908373ffffffffffffffffffffffffffffffffffffffff1602179055505062000150565b600081519050620000d08162000136565b92915050565b600060208284031215620000e957600080fd5b6000620000f984828501620000bf565b91505092915050565b60006200010f8262000116565b9050919050565b600073ffffffffffffffffffffffffffffffffffffffff82169050919050565b620001418162000102565b81146200014d57600080fd5b50565b61177f80620001606000396000f3fe60806040526004361061004a5760003560e01c806305d070331461004f5780636c3352561461007a5780638da5cb5b14610096578063ad5c4648146100c1578063b434dbc0146100ec575b600080fd5b34801561005b57600080fd5b50610064610129565b60405161007191906112a3565b60405180910390f35b610094600480360381019061008f9190610e74565b610181565b005b3480156100a257600080fd5b506100ab610796565b6040516100b89190611288565b60405180910390f35b3480156100cd57600080fd5b506100d66107bc565b6040516100e39190611288565b60405180910390f35b3480156100f857600080fd5b50610113600480360381019061010e9190610f21565b6107d4565b60405161012091906112a3565b60405180910390f35b6060600380548060200260200160405190810160405280929190818152602001828054801561017757602002820191906000526020600020905b815481526020019060010190808311610163575b5050505050905090565b806000805b82518110156101f0578281815181106101c8577f4e487b7100000000000000000000000000000000000000000000000000000000600052603260045260246000fd5b6020026020010151826101db9190611516565b915080806101e890611645565b915050610186565b506127108114610235576040517f08c379a000000000000000000000000000000000000000000000000000000000815260040161022c90611311565b60405180910390fd5b8383805182511461027b576040517f08c379a000000000000000000000000000000000000000000000000000000000815260040161027290611331565b60405180910390fd5b600034116102be576040517f08c379a00000000000000000000000000000000000000000000000000000000081526004016102b590611351565b60405180910390fd5b600360006102cc9190610c05565b6000865167ffffffffffffffff81111561030f577f4e487b7100000000000000000000000000000000000000000000000000000000600052604160045260246000fd5b60405190808252806020026020018201604052801561034857816020015b610335610c26565b81526020019060019003908161032d5790505b50905060005b8751811015610753576000600267ffffffffffffffff81111561039a577f4e487b7100000000000000000000000000000000000000000000000000000000600052604160045260246000fd5b6040519080825280602002602001820160405280156103c85781602001602082028036833780820191505090505b5090507321be370d5312f44cb42ce377bc9b8a0cef1a4c838160008151811061041a577f4e487b7100000000000000000000000000000000000000000000000000000000600052603260045260246000fd5b602002602001019073ffffffffffffffffffffffffffffffffffffffff16908173ffffffffffffffffffffffffffffffffffffffff168152505088828151811061048d577f4e487b7100000000000000000000000000000000000000000000000000000000600052603260045260246000fd5b6020026020010151816001815181106104cf577f4e487b7100000000000000000000000000000000000000000000000000000000600052603260045260246000fd5b602002602001019073ffffffffffffffffffffffffffffffffffffffff16908173ffffffffffffffffffffffffffffffffffffffff168152505060008060009054906101000a900473ffffffffffffffffffffffffffffffffffffffff1673ffffffffffffffffffffffffffffffffffffffff16637ff36ab56127108b8681518110610584577f4e487b7100000000000000000000000000000000000000000000000000000000600052603260045260246000fd5b602002602001015134610597919061159d565b6105a1919061156c565b60018533426040518663ffffffff1660e01b81526004016105c594939291906112c5565b6000604051808303818588803b1580156105de57600080fd5b505af11580156105f2573d6000803e3d6000fd5b50505050506040513d6000823e3d601f19601f8201168201806040525081019061061c9190610ee0565b600181518110610655577f4e487b7100000000000000000000000000000000000000000000000000000000600052603260045260246000fd5b60200260200101519050600381908060018154018082558091505060019003906000526020600020016000909190919091505560006040518060400160405280846001815181106106cf577f4e487b7100000000000000000000000000000000000000000000000000000000600052603260045260246000fd5b602002602001015173ffffffffffffffffffffffffffffffffffffffff16815260200183815250905080858581518110610732577f4e487b7100000000000000000000000000000000000000000000000000000000600052603260045260246000fd5b6020026020010181905250505050808061074b90611645565b91505061034e565b507f2b2943c96f06817ea3d22a75824caca4e6fbbb5ea05491aff2c18ad7b45e65e734826040516107859291906113a1565b60405180910390a150505050505050565b600260009054906101000a900473ffffffffffffffffffffffffffffffffffffffff1681565b7321be370d5312f44cb42ce377bc9b8a0cef1a4c8381565b60608282805182511461081c576040517f08c379a000000000000000000000000000000000000000000000000000000000815260040161081390611331565b60405180910390fd5b6000855167ffffffffffffffff81111561085f577f4e487b7100000000000000000000000000000000000000000000000000000000600052604160045260246000fd5b60405190808252806020026020018201604052801561088d5781602001602082028036833780820191505090505b50905060005b8651811015610bf7576000600267ffffffffffffffff8111156108df577f4e487b7100000000000000000000000000000000000000000000000000000000600052604160045260246000fd5b60405190808252806020026020018201604052801561090d5781602001602082028036833780820191505090505b5090507321be370d5312f44cb42ce377bc9b8a0cef1a4c838160008151811061095f577f4e487b7100000000000000000000000000000000000000000000000000000000600052603260045260246000fd5b602002602001019073ffffffffffffffffffffffffffffffffffffffff16908173ffffffffffffffffffffffffffffffffffffffff16815250508782815181106109d2577f4e487b7100000000000000000000000000000000000000000000000000000000600052603260045260246000fd5b602002602001015181600181518110610a14577f4e487b7100000000000000000000000000000000000000000000000000000000600052603260045260246000fd5b602002602001019073ffffffffffffffffffffffffffffffffffffffff16908173ffffffffffffffffffffffffffffffffffffffff168152505060008060009054906101000a900473ffffffffffffffffffffffffffffffffffffffff1673ffffffffffffffffffffffffffffffffffffffff1663d06ca61f6127108a8681518110610ac9577f4e487b7100000000000000000000000000000000000000000000000000000000600052603260045260246000fd5b60200260200101518d610adc919061159d565b610ae6919061156c565b846040518363ffffffff1660e01b8152600401610b04929190611371565b60006040518083038186803b158015610b1c57600080fd5b505afa158015610b30573d6000803e3d6000fd5b505050506040513d6000823e3d601f19601f82011682018060405250810190610b599190610ee0565b600181518110610b92577f4e487b7100000000000000000000000000000000000000000000000000000000600052603260045260246000fd5b6020026020010151905080848481518110610bd6577f4e487b7100000000000000000000000000000000000000000000000000000000600052603260045260246000fd5b60200260200101818152505050508080610bef90611645565b915050610893565b508093505050509392505050565b5080546000825590600052602060002090810190610c239190610c56565b50565b6040518060400160405280600073ffffffffffffffffffffffffffffffffffffffff168152602001600081525090565b5b80821115610c6f576000816000905550600101610c57565b5090565b6000610c86610c8184611402565b6113d1565b90508083825260208201905082856020860282011115610ca557600080fd5b60005b85811015610cd55781610cbb8882610db7565b845260208401935060208301925050600181019050610ca8565b5050509392505050565b6000610cf2610ced8461142e565b6113d1565b90508083825260208201905082856020860282011115610d1157600080fd5b60005b85811015610d415781610d278882610e4a565b845260208401935060208301925050600181019050610d14565b5050509392505050565b6000610d5e610d598461142e565b6113d1565b90508083825260208201905082856020860282011115610d7d57600080fd5b60005b85811015610dad5781610d938882610e5f565b845260208401935060208301925050600181019050610d80565b5050509392505050565b600081359050610dc68161171b565b92915050565b600082601f830112610ddd57600080fd5b8135610ded848260208601610c73565b91505092915050565b600082601f830112610e0757600080fd5b8135610e17848260208601610cdf565b91505092915050565b600082601f830112610e3157600080fd5b8151610e41848260208601610d4b565b91505092915050565b600081359050610e5981611732565b92915050565b600081519050610e6e81611732565b92915050565b60008060408385031215610e8757600080fd5b600083013567ffffffffffffffff811115610ea157600080fd5b610ead85828601610dcc565b925050602083013567ffffffffffffffff811115610eca57600080fd5b610ed685828601610df6565b9150509250929050565b600060208284031215610ef257600080fd5b600082015167ffffffffffffffff811115610f0c57600080fd5b610f1884828501610e20565b91505092915050565b600080600060608486031215610f3657600080fd5b6000610f4486828701610e4a565b935050602084013567ffffffffffffffff811115610f6157600080fd5b610f6d86828701610dcc565b925050604084013567ffffffffffffffff811115610f8a57600080fd5b610f9686828701610df6565b9150509250925092565b6000610fac8383610fe8565b60208301905092915050565b6000610fc4838361123b565b60408301905092915050565b6000610fdc838361126a565b60208301905092915050565b610ff1816115f7565b82525050565b611000816115f7565b82525050565b60006110118261148a565b61101b81856114d2565b93506110268361145a565b8060005b8381101561105757815161103e8882610fa0565b9750611049836114ab565b92505060018101905061102a565b5085935050505092915050565b600061106f82611495565b61107981856114e3565b93506110848361146a565b8060005b838110156110b557815161109c8882610fb8565b97506110a7836114b8565b925050600181019050611088565b5085935050505092915050565b60006110cd826114a0565b6110d781856114f4565b93506110e28361147a565b8060005b838110156111135781516110fa8882610fd0565b9750611105836114c5565b9250506001810190506110e6565b5085935050505092915050565b61112981611633565b82525050565b600061113c603b83611505565b91507f4572726f723a2070657263656e7461676520617272617920646f65736e27742060008301527f61646420757020746f2031303025206f722031302c30303062707300000000006020830152604082019050919050565b60006111a2602e83611505565b91507f4572726f723a20706f6f6c20616e642070657263656e7461676520617272617960008301527f20646f65736e2774206d617463680000000000000000000000000000000000006020830152604082019050919050565b6000611208601e83611505565b91507f4572726f723a206d757374206265206d6f7265207468616e20302045544800006000830152602082019050919050565b6040820160008201516112516000850182610fe8565b506020820151611264602085018261126a565b50505050565b61127381611629565b82525050565b61128281611629565b82525050565b600060208201905061129d6000830184610ff7565b92915050565b600060208201905081810360008301526112bd81846110c2565b905092915050565b60006080820190506112da6000830187611120565b81810360208301526112ec8186611006565b90506112fb6040830185610ff7565b6113086060830184611279565b95945050505050565b6000602082019050818103600083015261132a8161112f565b9050919050565b6000602082019050818103600083015261134a81611195565b9050919050565b6000602082019050818103600083015261136a816111fb565b9050919050565b60006040820190506113866000830185611279565b81810360208301526113988184611006565b90509392505050565b60006040820190506113b66000830185611279565b81810360208301526113c88184611064565b90509392505050565b6000604051905081810181811067ffffffffffffffff821117156113f8576113f76116ec565b5b8060405250919050565b600067ffffffffffffffff82111561141d5761141c6116ec565b5b602082029050602081019050919050565b600067ffffffffffffffff821115611449576114486116ec565b5b602082029050602081019050919050565b6000819050602082019050919050565b6000819050602082019050919050565b6000819050602082019050919050565b600081519050919050565b600081519050919050565b600081519050919050565b6000602082019050919050565b6000602082019050919050565b6000602082019050919050565b600082825260208201905092915050565b600082825260208201905092915050565b600082825260208201905092915050565b600082825260208201905092915050565b600061152182611629565b915061152c83611629565b9250827fffffffffffffffffffffffffffffffffffffffffffffffffffffffffffffffff038211156115615761156061168e565b5b828201905092915050565b600061157782611629565b915061158283611629565b925082611592576115916116bd565b5b828204905092915050565b60006115a882611629565b91506115b383611629565b9250817fffffffffffffffffffffffffffffffffffffffffffffffffffffffffffffffff04831182151516156115ec576115eb61168e565b5b828202905092915050565b600061160282611609565b9050919050565b600073ffffffffffffffffffffffffffffffffffffffff82169050919050565b6000819050919050565b600061163e82611629565b9050919050565b600061165082611629565b91507fffffffffffffffffffffffffffffffffffffffffffffffffffffffffffffffff8214156116835761168261168e565b5b600182019050919050565b7f4e487b7100000000000000000000000000000000000000000000000000000000600052601160045260246000fd5b7f4e487b7100000000000000000000000000000000000000000000000000000000600052601260045260246000fd5b7f4e487b7100000000000000000000000000000000000000000000000000000000600052604160045260246000fd5b611724816115f7565b811461172f57600080fd5b50565b61173b81611629565b811461174657600080fd5b5056fea264697066735822122012a0d2e7f6184d2dae4e7567c575b1cdff89b68b4bd0508275bab0593cb3a95364736f6c63430008000033",
  "immutableReferences": {},
  "source": "// SPDX-License-Identifier: UNLICENSED\npragma solidity ^0.8.0;\nimport \"./IERC20.sol\";\nimport \"./Irouter.sol\";\n\ncontract Multiswap {\n    Irouter router;\n    IERC20 erc20;\n    address public owner;\n    address public constant WETH = 0x21be370D5312f44cB42ce377BC9b8a0cEF1A4C83; // wFTM\n    // address public constant WETH = 0xC02aaA39b223FE8D0A0e5C4F27eAD9083C756Cc2; // wETH\n    uint256[] amountsArray;\n\n    struct SwapObject {\n        address tokenAddress;\n        uint256 amount;\n    }\n\n    event SwapEthForTokensEvent(uint256 swapFromAmount, SwapObject[] swapTo);\n\n    constructor(address _router) {\n        // for now, we put the default router; in the future, we will inidicate in code which to use\n        owner = msg.sender;\n        router = Irouter(_router);\n    }\n\n    // swap eth by percentage for another token\n    // 1~10000\n    // *** use memory or calldata ??? which is better\n    function swapEthForMultipleTokensByPercent(\n        address[] memory poolAddresses,\n        uint256[] memory percentForEachToken\n    )\n        public\n        payable\n        correctPercentageInput(percentForEachToken)\n        checkArraysMatch(poolAddresses, percentForEachToken)\n    {\n        require(msg.value > 0, \"Error: must be more than 0 ETH\");\n\n        delete amountsArray; // for test\n        SwapObject[] memory swapTo = new SwapObject[](poolAddresses.length);\n\n        for (uint256 i; i < poolAddresses.length; i++) {\n            address[] memory path = new address[](2);\n            path[0] = WETH;\n            path[1] = poolAddresses[i];\n            // router.swapExactETHForTokens(amountOutMin, path, to, deadline);\n            uint256 tokenAmount = router.swapExactETHForTokens{\n                value: (msg.value * percentForEachToken[i]) / 10000\n            }(1, path, msg.sender, block.timestamp)[1];\n            amountsArray.push(tokenAmount);\n            SwapObject memory swapObject = SwapObject(path[1], tokenAmount);\n            swapTo[i] = swapObject;\n        }\n        emit SwapEthForTokensEvent(msg.value, swapTo);\n    }\n\n    function getAmountsOutEthForMultipleTokensByPercent(\n        uint256 ethAmount,\n        address[] memory poolAddresses,\n        uint256[] memory percentForEachToken\n    )\n        public\n        view\n        checkArraysMatch(poolAddresses, percentForEachToken)\n        returns (uint256[] memory)\n    {\n        uint256[] memory returnArray = new uint256[](poolAddresses.length);\n\n        for (uint256 i; i < poolAddresses.length; i++) {\n            address[] memory path = new address[](2);\n            path[0] = WETH;\n            path[1] = poolAddresses[i];\n            uint256 tokenAmount = router.getAmountsOut(\n                (ethAmount * percentForEachToken[i]) / 10000,\n                path\n            )[1];\n            returnArray[i] = (tokenAmount);\n        }\n        return returnArray;\n    }\n\n    function getAmountsArray() public view returns (uint256[] memory) {\n        return amountsArray;\n    }\n\n    modifier correctPercentageInput(uint256[] memory percentForEachToken) {\n        uint256 amount;\n        for (uint256 i; i < percentForEachToken.length; i++) {\n            amount += percentForEachToken[i];\n        }\n        require(\n            amount == 10000,\n            \"Error: percentage array doesn't add up to 100% or 10,000bps\"\n        );\n        _;\n    }\n\n    modifier checkArraysMatch(\n        address[] memory poolAddresses,\n        uint256[] memory percentForEachToken\n    ) {\n        require(\n            poolAddresses.length == percentForEachToken.length,\n            \"Error: pool and percentage array doesn't match\"\n        );\n        _;\n    }\n}\n",
  "sourcePath": "/Users/denlie/Desktop/Coding/personal/multi-swap/src/contracts/Multiswap.sol",
  "compiler": {
    "name": "solc",
    "version": "0.8.0+commit.c7dfd78e.Emscripten.clang"
  },
  "schemaVersion": "3.4.8",
  "updatedAt": "2023-01-17T09:12:15.545Z",
  "networkType": "ethereum",
  "devdoc": {
    "kind": "dev",
    "methods": {},
    "version": 1
  },
  "userdoc": {
    "kind": "user",
    "methods": {},
    "version": 1
  }
}