{
  "contractName": "Multiswap",
  "abi": [
    {
      "inputs": [
        {
          "internalType": "address",
          "name": "_router",
          "type": "address"
        }
      ],
      "stateMutability": "nonpayable",
      "type": "constructor"
    },
    {
      "anonymous": false,
      "inputs": [
        {
          "components": [
            {
              "internalType": "address",
              "name": "tokenAddress",
              "type": "address"
            },
            {
              "internalType": "uint256",
              "name": "amount",
              "type": "uint256"
            }
          ],
          "indexed": false,
          "internalType": "struct Multiswap.SwapObject[]",
          "name": "swapFrom",
          "type": "tuple[]"
        },
        {
          "components": [
            {
              "internalType": "address",
              "name": "tokenAddress",
              "type": "address"
            },
            {
              "internalType": "uint256",
              "name": "amount",
              "type": "uint256"
            }
          ],
          "indexed": false,
          "internalType": "struct Multiswap.SwapObject[]",
          "name": "swapTo",
          "type": "tuple[]"
        }
      ],
      "name": "SwapEthAndTokensForTokensEvent",
      "type": "event"
    },
    {
      "anonymous": false,
      "inputs": [
        {
          "indexed": false,
          "internalType": "uint256",
          "name": "swapFromAmount",
          "type": "uint256"
        },
        {
          "components": [
            {
              "internalType": "address",
              "name": "tokenAddress",
              "type": "address"
            },
            {
              "internalType": "uint256",
              "name": "amount",
              "type": "uint256"
            }
          ],
          "indexed": false,
          "internalType": "struct Multiswap.SwapObject[]",
          "name": "swapTo",
          "type": "tuple[]"
        }
      ],
      "name": "SwapEthForTokensEvent",
      "type": "event"
    },
    {
      "anonymous": false,
      "inputs": [
        {
          "components": [
            {
              "internalType": "address",
              "name": "tokenAddress",
              "type": "address"
            },
            {
              "internalType": "uint256",
              "name": "amount",
              "type": "uint256"
            }
          ],
          "indexed": false,
          "internalType": "struct Multiswap.SwapObject[]",
          "name": "swapFrom",
          "type": "tuple[]"
        },
        {
          "indexed": false,
          "internalType": "uint256",
          "name": "swapToAmount",
          "type": "uint256"
        }
      ],
      "name": "SwapTokensForEthEvent",
      "type": "event"
    },
    {
      "anonymous": false,
      "inputs": [
        {
          "components": [
            {
              "internalType": "address",
              "name": "tokenAddress",
              "type": "address"
            },
            {
              "internalType": "uint256",
              "name": "amount",
              "type": "uint256"
            }
          ],
          "indexed": false,
          "internalType": "struct Multiswap.SwapObject[]",
          "name": "swapFrom",
          "type": "tuple[]"
        },
        {
          "components": [
            {
              "internalType": "address",
              "name": "tokenAddress",
              "type": "address"
            },
            {
              "internalType": "uint256",
              "name": "amount",
              "type": "uint256"
            }
          ],
          "indexed": false,
          "internalType": "struct Multiswap.SwapObject[]",
          "name": "swapTo",
          "type": "tuple[]"
        }
      ],
      "name": "SwapTokensForTokensAndEthEvent",
      "type": "event"
    },
    {
      "anonymous": false,
      "inputs": [
        {
          "components": [
            {
              "internalType": "address",
              "name": "tokenAddress",
              "type": "address"
            },
            {
              "internalType": "uint256",
              "name": "amount",
              "type": "uint256"
            }
          ],
          "indexed": false,
          "internalType": "struct Multiswap.SwapObject[]",
          "name": "swapFrom",
          "type": "tuple[]"
        },
        {
          "components": [
            {
              "internalType": "address",
              "name": "tokenAddress",
              "type": "address"
            },
            {
              "internalType": "uint256",
              "name": "amount",
              "type": "uint256"
            }
          ],
          "indexed": false,
          "internalType": "struct Multiswap.SwapObject[]",
          "name": "swapTo",
          "type": "tuple[]"
        }
      ],
      "name": "SwapTokensForTokensEvent",
      "type": "event"
    },
    {
      "inputs": [],
      "name": "WETH",
      "outputs": [
        {
          "internalType": "address",
          "name": "",
          "type": "address"
        }
      ],
      "stateMutability": "view",
      "type": "function",
      "constant": true
    },
    {
      "inputs": [],
      "name": "contractOwner",
      "outputs": [
        {
          "internalType": "address",
          "name": "",
          "type": "address"
        }
      ],
      "stateMutability": "view",
      "type": "function",
      "constant": true
    },
    {
      "inputs": [
        {
          "internalType": "address",
          "name": "token",
          "type": "address"
        }
      ],
      "name": "allowanceERC20",
      "outputs": [
        {
          "internalType": "uint256",
          "name": "",
          "type": "uint256"
        }
      ],
      "stateMutability": "view",
      "type": "function",
      "constant": true
    },
    {
      "inputs": [
        {
          "internalType": "enum Multiswap.ToAddress",
          "name": "toAddress",
          "type": "uint8"
        },
        {
          "internalType": "uint256",
          "name": "inputtedEthAmountFromContract",
          "type": "uint256"
        },
        {
          "internalType": "address[]",
          "name": "poolAddresses",
          "type": "address[]"
        },
        {
          "internalType": "uint256[]",
          "name": "percentForEachToken",
          "type": "uint256[]"
        },
        {
          "internalType": "bool",
          "name": "emitEvent",
          "type": "bool"
        }
      ],
      "name": "internalSwapEthForMultipleTokensByPercent",
      "outputs": [
        {
          "internalType": "uint256",
          "name": "ethAmount",
          "type": "uint256"
        },
        {
          "components": [
            {
              "internalType": "address",
              "name": "tokenAddress",
              "type": "address"
            },
            {
              "internalType": "uint256",
              "name": "amount",
              "type": "uint256"
            }
          ],
          "internalType": "struct Multiswap.SwapObject[]",
          "name": "swapTo",
          "type": "tuple[]"
        }
      ],
      "stateMutability": "payable",
      "type": "function",
      "payable": true
    },
    {
      "inputs": [
        {
          "internalType": "enum Multiswap.ToAddress",
          "name": "toAddress",
          "type": "uint8"
        },
        {
          "internalType": "address[]",
          "name": "poolAddresses",
          "type": "address[]"
        },
        {
          "internalType": "uint256[]",
          "name": "amountForEachTokens",
          "type": "uint256[]"
        },
        {
          "internalType": "bool",
          "name": "emitEvent",
          "type": "bool"
        }
      ],
      "name": "internalSwapMultipleTokensForEth",
      "outputs": [
        {
          "components": [
            {
              "internalType": "address",
              "name": "tokenAddress",
              "type": "address"
            },
            {
              "internalType": "uint256",
              "name": "amount",
              "type": "uint256"
            }
          ],
          "internalType": "struct Multiswap.SwapObject[]",
          "name": "swapFrom",
          "type": "tuple[]"
        },
        {
          "internalType": "uint256",
          "name": "ethAmount",
          "type": "uint256"
        }
      ],
      "stateMutability": "nonpayable",
      "type": "function"
    },
    {
      "inputs": [
        {
          "internalType": "uint256",
          "name": "ethAmount",
          "type": "uint256"
        },
        {
          "internalType": "address[]",
          "name": "poolAddresses",
          "type": "address[]"
        },
        {
          "internalType": "uint256[]",
          "name": "percentForEachToken",
          "type": "uint256[]"
        }
      ],
      "name": "getAmountsOutEthForMultipleTokensByPercent",
      "outputs": [
        {
          "internalType": "uint256[]",
          "name": "",
          "type": "uint256[]"
        }
      ],
      "stateMutability": "view",
      "type": "function",
      "constant": true
    },
    {
      "inputs": [
        {
          "internalType": "address[]",
          "name": "poolAddresses",
          "type": "address[]"
        },
        {
          "internalType": "uint256[]",
          "name": "percentForEachToken",
          "type": "uint256[]"
        }
      ],
      "name": "swapEthForMultipleTokensByPercent",
      "outputs": [
        {
          "internalType": "uint256",
          "name": "",
          "type": "uint256"
        },
        {
          "components": [
            {
              "internalType": "address",
              "name": "tokenAddress",
              "type": "address"
            },
            {
              "internalType": "uint256",
              "name": "amount",
              "type": "uint256"
            }
          ],
          "internalType": "struct Multiswap.SwapObject[]",
          "name": "",
          "type": "tuple[]"
        }
      ],
      "stateMutability": "payable",
      "type": "function",
      "payable": true
    },
    {
      "inputs": [
        {
          "internalType": "address[]",
          "name": "poolAddresses",
          "type": "address[]"
        },
        {
          "internalType": "uint256[]",
          "name": "amountForEachTokens",
          "type": "uint256[]"
        }
      ],
      "name": "swapMultipleTokensForEth",
      "outputs": [
        {
          "components": [
            {
              "internalType": "address",
              "name": "tokenAddress",
              "type": "address"
            },
            {
              "internalType": "uint256",
              "name": "amount",
              "type": "uint256"
            }
          ],
          "internalType": "struct Multiswap.SwapObject[]",
          "name": "",
          "type": "tuple[]"
        },
        {
          "internalType": "uint256",
          "name": "",
          "type": "uint256"
        }
      ],
      "stateMutability": "nonpayable",
      "type": "function"
    },
    {
      "inputs": [
        {
          "internalType": "address[]",
          "name": "poolAddressesIn",
          "type": "address[]"
        },
        {
          "internalType": "uint256[]",
          "name": "amountForEachTokensIn",
          "type": "uint256[]"
        },
        {
          "internalType": "address[]",
          "name": "poolAddressesOut",
          "type": "address[]"
        },
        {
          "internalType": "uint256[]",
          "name": "percentForEachTokenOut",
          "type": "uint256[]"
        }
      ],
      "name": "swapMultipleTokensForMultipleTokensByPercent",
      "outputs": [
        {
          "components": [
            {
              "internalType": "address",
              "name": "tokenAddress",
              "type": "address"
            },
            {
              "internalType": "uint256",
              "name": "amount",
              "type": "uint256"
            }
          ],
          "internalType": "struct Multiswap.SwapObject[]",
          "name": "swapFrom",
          "type": "tuple[]"
        },
        {
          "components": [
            {
              "internalType": "address",
              "name": "tokenAddress",
              "type": "address"
            },
            {
              "internalType": "uint256",
              "name": "amount",
              "type": "uint256"
            }
          ],
          "internalType": "struct Multiswap.SwapObject[]",
          "name": "swapTo",
          "type": "tuple[]"
        }
      ],
      "stateMutability": "nonpayable",
      "type": "function"
    },
    {
      "inputs": [
        {
          "internalType": "address[]",
          "name": "_poolAddressesIn",
          "type": "address[]"
        },
        {
          "internalType": "uint256[]",
          "name": "_amountForEachTokensIn",
          "type": "uint256[]"
        },
        {
          "internalType": "address[]",
          "name": "_poolAddressesOut",
          "type": "address[]"
        },
        {
          "internalType": "uint256[]",
          "name": "_percentForEachTokenOut",
          "type": "uint256[]"
        }
      ],
      "name": "swapMultipleTokensForMultipleTokensAndEthByPercent",
      "outputs": [
        {
          "components": [
            {
              "internalType": "address",
              "name": "tokenAddress",
              "type": "address"
            },
            {
              "internalType": "uint256",
              "name": "amount",
              "type": "uint256"
            }
          ],
          "internalType": "struct Multiswap.SwapObject[]",
          "name": "swapFrom",
          "type": "tuple[]"
        },
        {
          "components": [
            {
              "internalType": "address",
              "name": "tokenAddress",
              "type": "address"
            },
            {
              "internalType": "uint256",
              "name": "amount",
              "type": "uint256"
            }
          ],
          "internalType": "struct Multiswap.SwapObject[]",
          "name": "swapTo",
          "type": "tuple[]"
        }
      ],
      "stateMutability": "nonpayable",
      "type": "function"
    },
    {
      "inputs": [
        {
          "internalType": "address[]",
          "name": "_poolAddressesIn",
          "type": "address[]"
        },
        {
          "internalType": "uint256[]",
          "name": "_amountForEachTokensIn",
          "type": "uint256[]"
        },
        {
          "internalType": "address[]",
          "name": "_poolAddressesOut",
          "type": "address[]"
        },
        {
          "internalType": "uint256[]",
          "name": "_percentForEachTokenOut",
          "type": "uint256[]"
        }
      ],
      "name": "swapTokensAndEthForMultipleTokensByPercent",
      "outputs": [
        {
          "components": [
            {
              "internalType": "address",
              "name": "tokenAddress",
              "type": "address"
            },
            {
              "internalType": "uint256",
              "name": "amount",
              "type": "uint256"
            }
          ],
          "internalType": "struct Multiswap.SwapObject[]",
          "name": "swapFrom",
          "type": "tuple[]"
        },
        {
          "components": [
            {
              "internalType": "address",
              "name": "tokenAddress",
              "type": "address"
            },
            {
              "internalType": "uint256",
              "name": "amount",
              "type": "uint256"
            }
          ],
          "internalType": "struct Multiswap.SwapObject[]",
          "name": "swapTo",
          "type": "tuple[]"
        }
      ],
      "stateMutability": "payable",
      "type": "function",
      "payable": true
    }
  ],
  "bytecode": "0x60806040526000600360006101000a81548173ffffffffffffffffffffffffffffffffffffffff021916908373ffffffffffffffffffffffffffffffffffffffff1602179055503480156200005357600080fd5b506040516200349138038062003491833981810160405281019062000079919062000118565b33600260006101000a81548173ffffffffffffffffffffffffffffffffffffffff021916908373ffffffffffffffffffffffffffffffffffffffff160217905550806000806101000a81548173ffffffffffffffffffffffffffffffffffffffff021916908373ffffffffffffffffffffffffffffffffffffffff1602179055505062000192565b600081519050620001128162000178565b92915050565b6000602082840312156200012b57600080fd5b60006200013b8482850162000101565b91505092915050565b6000620001518262000158565b9050919050565b600073ffffffffffffffffffffffffffffffffffffffff82169050919050565b620001838162000144565b81146200018f57600080fd5b50565b6132ef80620001a26000396000f3fe60806040526004361061009c5760003560e01c80636c335256116100645780636c335256146101c957806384ae84de146101fa578063ad5c46481461022b578063b434dbc014610256578063c2b2749f14610293578063ce606ee0146102d15761009c565b806305b3ad52146100a15780632257da5d146100de5780633618179b1461011c57806339f569df1461014d578063687adf671461018b575b600080fd5b3480156100ad57600080fd5b506100c860048036038101906100c3919061246e565b6102fc565b6040516100d59190612e05565b60405180910390f35b3480156100ea57600080fd5b5061010560048036038101906101009190612630565b610390565b604051610113929190612cc7565b60405180910390f35b61013660048036038101906101319190612503565b610c32565b604051610144929190612c90565b60405180910390f35b34801561015957600080fd5b50610174600480360381019061016f9190612497565b610e6b565b604051610182929190612cc7565b60405180910390f35b34801561019757600080fd5b506101b260048036038101906101ad9190612503565b610e88565b6040516101c0929190612c90565b60405180910390f35b6101e360048036038101906101de9190612497565b611097565b6040516101f1929190612e50565b60405180910390f35b610214600480360381019061020f91906126c3565b6110b5565b604051610222929190612e50565b60405180910390f35b34801561023757600080fd5b5061024061181a565b60405161024d9190612bec565b60405180910390f35b34801561026257600080fd5b5061027d60048036038101906102789190612793565b611832565b60405161028a9190612cf7565b60405180910390f35b34801561029f57600080fd5b506102ba60048036038101906102b59190612503565b611c63565b6040516102c8929190612c90565b60405180910390f35b3480156102dd57600080fd5b506102e6611cd6565b6040516102f39190612bec565b60405180910390f35b60008173ffffffffffffffffffffffffffffffffffffffff1663dd62ed3e33306040518363ffffffff1660e01b8152600401610339929190612c07565b60206040518083038186803b15801561035157600080fd5b505afa158015610365573d6000803e3d6000fd5b505050506040513d601f19601f82011682018060405250810190610389919061276a565b9050919050565b60606000848480518251146103da576040517f08c379a00000000000000000000000000000000000000000000000000000000081526004016103d190612da5565b60405180910390fd5b8560006001905060005b825181101561044d576000838281518110610428577f4e487b7100000000000000000000000000000000000000000000000000000000600052603260045260246000fd5b60200260200101511161043a57600091505b80806104459061318e565b9150506103e4565b508061045857600080fd5b885167ffffffffffffffff811115610499577f4e487b7100000000000000000000000000000000000000000000000000000000600052604160045260246000fd5b6040519080825280602002602001820160405280156104d257816020015b6104bf6121fe565b8152602001906001900390816104b75790505b5095506000806001811115610510577f4e487b7100000000000000000000000000000000000000000000000000000000600052602160045260246000fd5b8b6001811115610549577f4e487b7100000000000000000000000000000000000000000000000000000000600052602160045260246000fd5b1415610553573390505b60018081111561058c577f4e487b7100000000000000000000000000000000000000000000000000000000600052602160045260246000fd5b8b60018111156105c5577f4e487b7100000000000000000000000000000000000000000000000000000000600052602160045260246000fd5b14156105cf573090505b60005b8a51811015610be3576000600267ffffffffffffffff81111561061e577f4e487b7100000000000000000000000000000000000000000000000000000000600052604160045260246000fd5b60405190808252806020026020018201604052801561064c5781602001602082028036833780820191505090505b5090508b8281518110610688577f4e487b7100000000000000000000000000000000000000000000000000000000600052603260045260246000fd5b6020026020010151816000815181106106ca577f4e487b7100000000000000000000000000000000000000000000000000000000600052603260045260246000fd5b602002602001019073ffffffffffffffffffffffffffffffffffffffff16908173ffffffffffffffffffffffffffffffffffffffff16815250507321be370d5312f44cb42ce377bc9b8a0cef1a4c8381600181518110610753577f4e487b7100000000000000000000000000000000000000000000000000000000600052603260045260246000fd5b602002602001019073ffffffffffffffffffffffffffffffffffffffff16908173ffffffffffffffffffffffffffffffffffffffff16815250508b82815181106107c6577f4e487b7100000000000000000000000000000000000000000000000000000000600052603260045260246000fd5b602002602001015173ffffffffffffffffffffffffffffffffffffffff166323b872dd33308e8681518110610824577f4e487b7100000000000000000000000000000000000000000000000000000000600052603260045260246000fd5b60200260200101516040518463ffffffff1660e01b815260040161084a93929190612c30565b602060405180830381600087803b15801561086457600080fd5b505af1158015610878573d6000803e3d6000fd5b505050506040513d601f19601f8201168201806040525081019061089c9190612607565b508b82815181106108d6577f4e487b7100000000000000000000000000000000000000000000000000000000600052603260045260246000fd5b602002602001015173ffffffffffffffffffffffffffffffffffffffff1663095ea7b360008054906101000a900473ffffffffffffffffffffffffffffffffffffffff168d8581518110610953577f4e487b7100000000000000000000000000000000000000000000000000000000600052603260045260246000fd5b60200260200101516040518363ffffffff1660e01b8152600401610978929190612c67565b602060405180830381600087803b15801561099257600080fd5b505af11580156109a6573d6000803e3d6000fd5b505050506040513d601f19601f820116820180604052508101906109ca9190612607565b5060008060009054906101000a900473ffffffffffffffffffffffffffffffffffffffff1673ffffffffffffffffffffffffffffffffffffffff166318cbafe58d8581518110610a43577f4e487b7100000000000000000000000000000000000000000000000000000000600052603260045260246000fd5b602002602001015160018588426040518663ffffffff1660e01b8152600401610a70959493929190612e80565b600060405180830381600087803b158015610a8a57600080fd5b505af1158015610a9e573d6000803e3d6000fd5b505050506040513d6000823e3d601f19601f82011682018060405250810190610ac791906125c6565b600181518110610b00577f4e487b7100000000000000000000000000000000000000000000000000000000600052603260045260246000fd5b602002602001015190508089610b16919061301f565b98506000604051806040016040528084600081518110610b5f577f4e487b7100000000000000000000000000000000000000000000000000000000600052603260045260246000fd5b602002602001015173ffffffffffffffffffffffffffffffffffffffff168152602001838152509050808b8581518110610bc2577f4e487b7100000000000000000000000000000000000000000000000000000000600052603260045260246000fd5b60200260200101819052505050508080610bdb9061318e565b9150506105d2565b508715610c24577f28b06a4d6771bd90c8b6454ba8eedb015d2357bae4f48e9534d639c9994a57648787604051610c1b929190612cc7565b60405180910390a15b505050505094509492505050565b60608085600360009054906101000a900473ffffffffffffffffffffffffffffffffffffffff1673ffffffffffffffffffffffffffffffffffffffff168160018351610c7e9190613100565b81518110610cb5577f4e487b7100000000000000000000000000000000000000000000000000000000600052603260045260246000fd5b602002602001015173ffffffffffffffffffffffffffffffffffffffff1614610cdd57600080fd5b60008660018851610cee9190613100565b81518110610d25577f4e487b7100000000000000000000000000000000000000000000000000000000600052603260045260246000fd5b60200260200101519050348114610d71576040517f08c379a0000000000000000000000000000000000000000000000000000000008152600401610d6890612dc5565b60405180910390fd5b6000610d7c89611cfc565b90506000610d8989611eab565b905060006060610d9d600185856000610390565b809350819250505060006040518060400160405280600360009054906101000a900473ffffffffffffffffffffffffffffffffffffffff1673ffffffffffffffffffffffffffffffffffffffff168152602001878152509050610e00828261202c565b9850610e1c60008785610e13919061301f565b8d8d60006110b5565b9050809850507fc4ab7ee09022fe754cfc887e423924bd845cfa2d26c9d670b5214804d07d1e6b8989604051610e53929190612c90565b60405180910390a15050505050505094509492505050565b60606000610e7d600085856001610390565b915091509250929050565b60608083600360009054906101000a900473ffffffffffffffffffffffffffffffffffffffff1673ffffffffffffffffffffffffffffffffffffffff168160018351610ed49190613100565b81518110610f0b577f4e487b7100000000000000000000000000000000000000000000000000000000600052603260045260246000fd5b602002602001015173ffffffffffffffffffffffffffffffffffffffff1614610f3357600080fd5b6000610f3e86611cfc565b90506000610f4b86611eab565b90506000610f5d60018b8b6000610390565b809250819750505060006127108860018a51610f799190613100565b81518110610fb0577f4e487b7100000000000000000000000000000000000000000000000000000000600052603260045260246000fd5b602002602001015183610fc391906130a6565b610fcd9190613075565b90506060610feb60008385610fe29190613100565b878760006110b5565b90508091505060006040518060400160405280600360009054906101000a900473ffffffffffffffffffffffffffffffffffffffff1673ffffffffffffffffffffffffffffffffffffffff16815260200184815250905061104c828261202c565b97507f9da57979c93ba775db7bdcd72d8b15ac5f2a5721ba0e8d8415ae2f4adcdab508898960405161107f929190612c90565b60405180910390a15050505050505094509492505050565b600060606110aa600080868660016110b5565b915091509250929050565b60006060836000806000905060005b835181101561117c57838181518110611106577f4e487b7100000000000000000000000000000000000000000000000000000000600052603260045260246000fd5b602002602001015183611119919061301f565b92506000848281518110611156577f4e487b7100000000000000000000000000000000000000000000000000000000600052603260045260246000fd5b6020026020010151141561116957600191505b80806111749061318e565b9150506110c4565b5061271082146111c1576040517f08c379a00000000000000000000000000000000000000000000000000000000081526004016111b890612d85565b60405180910390fd5b60001515811515146111d257600080fd5b87878051825114611218576040517f08c379a000000000000000000000000000000000000000000000000000000000815260040161120f90612da5565b60405180910390fd5b895167ffffffffffffffff811115611259577f4e487b7100000000000000000000000000000000000000000000000000000000600052604160045260246000fd5b60405190808252806020026020018201604052801561129257816020015b61127f6121fe565b8152602001906001900390816112775790505b50955060008060018111156112d0577f4e487b7100000000000000000000000000000000000000000000000000000000600052602160045260246000fd5b8d6001811115611309577f4e487b7100000000000000000000000000000000000000000000000000000000600052602160045260246000fd5b14156113285733905060008c141561132357349750611327565b8b97505b5b6000881161136b576040517f08c379a000000000000000000000000000000000000000000000000000000000815260040161136290612d65565b60405180910390fd5b6001808111156113a4577f4e487b7100000000000000000000000000000000000000000000000000000000600052602160045260246000fd5b8d60018111156113dd577f4e487b7100000000000000000000000000000000000000000000000000000000600052602160045260246000fd5b14156113ea573090508b97505b60005b8b518110156117c9576000600267ffffffffffffffff811115611439577f4e487b7100000000000000000000000000000000000000000000000000000000600052604160045260246000fd5b6040519080825280602002602001820160405280156114675781602001602082028036833780820191505090505b5090507321be370d5312f44cb42ce377bc9b8a0cef1a4c83816000815181106114b9577f4e487b7100000000000000000000000000000000000000000000000000000000600052603260045260246000fd5b602002602001019073ffffffffffffffffffffffffffffffffffffffff16908173ffffffffffffffffffffffffffffffffffffffff16815250508c828151811061152c577f4e487b7100000000000000000000000000000000000000000000000000000000600052603260045260246000fd5b60200260200101518160018151811061156e577f4e487b7100000000000000000000000000000000000000000000000000000000600052603260045260246000fd5b602002602001019073ffffffffffffffffffffffffffffffffffffffff16908173ffffffffffffffffffffffffffffffffffffffff168152505060008060009054906101000a900473ffffffffffffffffffffffffffffffffffffffff1673ffffffffffffffffffffffffffffffffffffffff16637ff36ab56127108f8681518110611623577f4e487b7100000000000000000000000000000000000000000000000000000000600052603260045260246000fd5b60200260200101518e61163691906130a6565b6116409190613075565b60018588426040518663ffffffff1660e01b81526004016116649493929190612d19565b6000604051808303818588803b15801561167d57600080fd5b505af1158015611691573d6000803e3d6000fd5b50505050506040513d6000823e3d601f19601f820116820180604052508101906116bb91906125c6565b6001815181106116f4577f4e487b7100000000000000000000000000000000000000000000000000000000600052603260045260246000fd5b602002602001015190506000604051806040016040528084600181518110611745577f4e487b7100000000000000000000000000000000000000000000000000000000600052603260045260246000fd5b602002602001015173ffffffffffffffffffffffffffffffffffffffff168152602001838152509050808b85815181106117a8577f4e487b7100000000000000000000000000000000000000000000000000000000600052603260045260246000fd5b602002602001018190525050505080806117c19061318e565b9150506113ed565b50881561180a577f2b2943c96f06817ea3d22a75824caca4e6fbbb5ea05491aff2c18ad7b45e65e78888604051611801929190612e50565b60405180910390a15b5050505050509550959350505050565b7321be370d5312f44cb42ce377bc9b8a0cef1a4c8381565b60608282805182511461187a576040517f08c379a000000000000000000000000000000000000000000000000000000000815260040161187190612da5565b60405180910390fd5b6000855167ffffffffffffffff8111156118bd577f4e487b7100000000000000000000000000000000000000000000000000000000600052604160045260246000fd5b6040519080825280602002602001820160405280156118eb5781602001602082028036833780820191505090505b50905060005b8651811015611c55576000600267ffffffffffffffff81111561193d577f4e487b7100000000000000000000000000000000000000000000000000000000600052604160045260246000fd5b60405190808252806020026020018201604052801561196b5781602001602082028036833780820191505090505b5090507321be370d5312f44cb42ce377bc9b8a0cef1a4c83816000815181106119bd577f4e487b7100000000000000000000000000000000000000000000000000000000600052603260045260246000fd5b602002602001019073ffffffffffffffffffffffffffffffffffffffff16908173ffffffffffffffffffffffffffffffffffffffff1681525050878281518110611a30577f4e487b7100000000000000000000000000000000000000000000000000000000600052603260045260246000fd5b602002602001015181600181518110611a72577f4e487b7100000000000000000000000000000000000000000000000000000000600052603260045260246000fd5b602002602001019073ffffffffffffffffffffffffffffffffffffffff16908173ffffffffffffffffffffffffffffffffffffffff168152505060008060009054906101000a900473ffffffffffffffffffffffffffffffffffffffff1673ffffffffffffffffffffffffffffffffffffffff1663d06ca61f6127108a8681518110611b27577f4e487b7100000000000000000000000000000000000000000000000000000000600052603260045260246000fd5b60200260200101518d611b3a91906130a6565b611b449190613075565b846040518363ffffffff1660e01b8152600401611b62929190612e20565b60006040518083038186803b158015611b7a57600080fd5b505afa158015611b8e573d6000803e3d6000fd5b505050506040513d6000823e3d601f19601f82011682018060405250810190611bb791906125c6565b600181518110611bf0577f4e487b7100000000000000000000000000000000000000000000000000000000600052603260045260246000fd5b6020026020010151905080848481518110611c34577f4e487b7100000000000000000000000000000000000000000000000000000000600052603260045260246000fd5b60200260200101818152505050508080611c4d9061318e565b9150506118f1565b508093505050509392505050565b6060806000611c76600188886000610390565b8092508194505050611c8d600082878760006110b5565b9050809250507f04758b587db6b11d79b68057f7c9572f4e036318bfa9122cd03a7ead24ed939c8383604051611cc4929190612c90565b60405180910390a15094509492505050565b600260009054906101000a900473ffffffffffffffffffffffffffffffffffffffff1681565b60606000825111611d42576040517f08c379a0000000000000000000000000000000000000000000000000000000008152600401611d3990612de5565b60405180910390fd5b600060018351611d529190613100565b67ffffffffffffffff811115611d91577f4e487b7100000000000000000000000000000000000000000000000000000000600052604160045260246000fd5b604051908082528060200260200182016040528015611dbf5781602001602082028036833780820191505090505b50905060005b60018451611dd39190613100565b811015611ea157838181518110611e13577f4e487b7100000000000000000000000000000000000000000000000000000000600052603260045260246000fd5b6020026020010151828281518110611e54577f4e487b7100000000000000000000000000000000000000000000000000000000600052603260045260246000fd5b602002602001019073ffffffffffffffffffffffffffffffffffffffff16908173ffffffffffffffffffffffffffffffffffffffff16815250508080611e999061318e565b915050611dc5565b5080915050919050565b60606000825111611ef1576040517f08c379a0000000000000000000000000000000000000000000000000000000008152600401611ee890612de5565b60405180910390fd5b600060018351611f019190613100565b67ffffffffffffffff811115611f40577f4e487b7100000000000000000000000000000000000000000000000000000000600052604160045260246000fd5b604051908082528060200260200182016040528015611f6e5781602001602082028036833780820191505090505b50905060005b60018451611f829190613100565b81101561202257838181518110611fc2577f4e487b7100000000000000000000000000000000000000000000000000000000600052603260045260246000fd5b6020026020010151828281518110612003577f4e487b7100000000000000000000000000000000000000000000000000000000600052603260045260246000fd5b602002602001018181525050808061201a9061318e565b915050611f74565b5080915050919050565b60606000835111612072576040517f08c379a000000000000000000000000000000000000000000000000000000000815260040161206990612de5565b60405180910390fd5b600060018451612082919061301f565b67ffffffffffffffff8111156120c1577f4e487b7100000000000000000000000000000000000000000000000000000000600052604160045260246000fd5b6040519080825280602002602001820160405280156120fa57816020015b6120e76121fe565b8152602001906001900390816120df5790505b50905060005b6001855161210e9190613100565b8110156121ad5784818151811061214e577f4e487b7100000000000000000000000000000000000000000000000000000000600052603260045260246000fd5b602002602001015182828151811061218f577f4e487b7100000000000000000000000000000000000000000000000000000000600052603260045260246000fd5b602002602001018190525080806121a59061318e565b915050612100565b5082818551815181106121e9577f4e487b7100000000000000000000000000000000000000000000000000000000600052603260045260246000fd5b60200260200101819052508091505092915050565b6040518060400160405280600073ffffffffffffffffffffffffffffffffffffffff168152602001600081525090565b600061224161223c84612f0b565b612eda565b9050808382526020820190508285602086028201111561226057600080fd5b60005b8581101561229057816122768882612372565b845260208401935060208301925050600181019050612263565b5050509392505050565b60006122ad6122a884612f37565b612eda565b905080838252602082019050828560208602820111156122cc57600080fd5b60005b858110156122fc57816122e28882612444565b8452602084019350602083019250506001810190506122cf565b5050509392505050565b600061231961231484612f37565b612eda565b9050808382526020820190508285602086028201111561233857600080fd5b60005b85811015612368578161234e8882612459565b84526020840193506020830192505060018101905061233b565b5050509392505050565b60008135905061238181613264565b92915050565b600082601f83011261239857600080fd5b81356123a884826020860161222e565b91505092915050565b600082601f8301126123c257600080fd5b81356123d284826020860161229a565b91505092915050565b600082601f8301126123ec57600080fd5b81516123fc848260208601612306565b91505092915050565b6000813590506124148161327b565b92915050565b6000815190506124298161327b565b92915050565b60008135905061243e81613292565b92915050565b600081359050612453816132a2565b92915050565b600081519050612468816132a2565b92915050565b60006020828403121561248057600080fd5b600061248e84828501612372565b91505092915050565b600080604083850312156124aa57600080fd5b600083013567ffffffffffffffff8111156124c457600080fd5b6124d085828601612387565b925050602083013567ffffffffffffffff8111156124ed57600080fd5b6124f9858286016123b1565b9150509250929050565b6000806000806080858703121561251957600080fd5b600085013567ffffffffffffffff81111561253357600080fd5b61253f87828801612387565b945050602085013567ffffffffffffffff81111561255c57600080fd5b612568878288016123b1565b935050604085013567ffffffffffffffff81111561258557600080fd5b61259187828801612387565b925050606085013567ffffffffffffffff8111156125ae57600080fd5b6125ba878288016123b1565b91505092959194509250565b6000602082840312156125d857600080fd5b600082015167ffffffffffffffff8111156125f257600080fd5b6125fe848285016123db565b91505092915050565b60006020828403121561261957600080fd5b60006126278482850161241a565b91505092915050565b6000806000806080858703121561264657600080fd5b60006126548782880161242f565b945050602085013567ffffffffffffffff81111561267157600080fd5b61267d87828801612387565b935050604085013567ffffffffffffffff81111561269a57600080fd5b6126a6878288016123b1565b92505060606126b787828801612405565b91505092959194509250565b600080600080600060a086880312156126db57600080fd5b60006126e98882890161242f565b95505060206126fa88828901612444565b945050604086013567ffffffffffffffff81111561271757600080fd5b61272388828901612387565b935050606086013567ffffffffffffffff81111561274057600080fd5b61274c888289016123b1565b925050608061275d88828901612405565b9150509295509295909350565b60006020828403121561277c57600080fd5b600061278a84828501612459565b91505092915050565b6000806000606084860312156127a857600080fd5b60006127b686828701612444565b935050602084013567ffffffffffffffff8111156127d357600080fd5b6127df86828701612387565b925050604084013567ffffffffffffffff8111156127fc57600080fd5b612808868287016123b1565b9150509250925092565b600061281e838361285a565b60208301905092915050565b60006128368383612b9f565b60408301905092915050565b600061284e8383612bce565b60208301905092915050565b61286381613134565b82525050565b61287281613134565b82525050565b600061288382612f93565b61288d8185612fdb565b935061289883612f63565b8060005b838110156128c95781516128b08882612812565b97506128bb83612fb4565b92505060018101905061289c565b5085935050505092915050565b60006128e182612f9e565b6128eb8185612fec565b93506128f683612f73565b8060005b8381101561292757815161290e888261282a565b975061291983612fc1565b9250506001810190506128fa565b5085935050505092915050565b600061293f82612fa9565b6129498185612ffd565b935061295483612f83565b8060005b8381101561298557815161296c8882612842565b975061297783612fce565b925050600181019050612958565b5085935050505092915050565b61299b8161317c565b82525050565b60006129ae602b8361300e565b91507f4572726f723a20696e70757420616d6f756e74206d757374206265206d6f726560008301527f207468616e2030204554480000000000000000000000000000000000000000006020830152604082019050919050565b6000612a14603b8361300e565b91507f4572726f723a2070657263656e7461676520617272617920646f65736e27742060008301527f61646420757020746f2031303025206f722031302c30303062707300000000006020830152604082019050919050565b6000612a7a602e8361300e565b91507f4572726f723a20706f6f6c20616e642070657263656e7461676520617272617960008301527f20646f65736e2774206d617463680000000000000000000000000000000000006020830152604082019050919050565b6000612ae060328361300e565b91507f416d6f756e7420676976656e206d75737420657175616c20746f20746865206960008301527f6e7075747465642045544820616d6f756e7400000000000000000000000000006020830152604082019050919050565b6000612b4660268361300e565b91507f4172726179206c656e677468206d75737420626520677265617465722074686160008301527f6e207a65726f00000000000000000000000000000000000000000000000000006020830152604082019050919050565b604082016000820151612bb5600085018261285a565b506020820151612bc86020850182612bce565b50505050565b612bd781613172565b82525050565b612be681613172565b82525050565b6000602082019050612c016000830184612869565b92915050565b6000604082019050612c1c6000830185612869565b612c296020830184612869565b9392505050565b6000606082019050612c456000830186612869565b612c526020830185612869565b612c5f6040830184612bdd565b949350505050565b6000604082019050612c7c6000830185612869565b612c896020830184612bdd565b9392505050565b60006040820190508181036000830152612caa81856128d6565b90508181036020830152612cbe81846128d6565b90509392505050565b60006040820190508181036000830152612ce181856128d6565b9050612cf06020830184612bdd565b9392505050565b60006020820190508181036000830152612d118184612934565b905092915050565b6000608082019050612d2e6000830187612992565b8181036020830152612d408186612878565b9050612d4f6040830185612869565b612d5c6060830184612bdd565b95945050505050565b60006020820190508181036000830152612d7e816129a1565b9050919050565b60006020820190508181036000830152612d9e81612a07565b9050919050565b60006020820190508181036000830152612dbe81612a6d565b9050919050565b60006020820190508181036000830152612dde81612ad3565b9050919050565b60006020820190508181036000830152612dfe81612b39565b9050919050565b6000602082019050612e1a6000830184612bdd565b92915050565b6000604082019050612e356000830185612bdd565b8181036020830152612e478184612878565b90509392505050565b6000604082019050612e656000830185612bdd565b8181036020830152612e7781846128d6565b90509392505050565b600060a082019050612e956000830188612bdd565b612ea26020830187612992565b8181036040830152612eb48186612878565b9050612ec36060830185612869565b612ed06080830184612bdd565b9695505050505050565b6000604051905081810181811067ffffffffffffffff82111715612f0157612f00613235565b5b8060405250919050565b600067ffffffffffffffff821115612f2657612f25613235565b5b602082029050602081019050919050565b600067ffffffffffffffff821115612f5257612f51613235565b5b602082029050602081019050919050565b6000819050602082019050919050565b6000819050602082019050919050565b6000819050602082019050919050565b600081519050919050565b600081519050919050565b600081519050919050565b6000602082019050919050565b6000602082019050919050565b6000602082019050919050565b600082825260208201905092915050565b600082825260208201905092915050565b600082825260208201905092915050565b600082825260208201905092915050565b600061302a82613172565b915061303583613172565b9250827fffffffffffffffffffffffffffffffffffffffffffffffffffffffffffffffff0382111561306a576130696131d7565b5b828201905092915050565b600061308082613172565b915061308b83613172565b92508261309b5761309a613206565b5b828204905092915050565b60006130b182613172565b91506130bc83613172565b9250817fffffffffffffffffffffffffffffffffffffffffffffffffffffffffffffffff04831182151516156130f5576130f46131d7565b5b828202905092915050565b600061310b82613172565b915061311683613172565b925082821015613129576131286131d7565b5b828203905092915050565b600061313f82613152565b9050919050565b60008115159050919050565b600073ffffffffffffffffffffffffffffffffffffffff82169050919050565b6000819050919050565b600061318782613172565b9050919050565b600061319982613172565b91507fffffffffffffffffffffffffffffffffffffffffffffffffffffffffffffffff8214156131cc576131cb6131d7565b5b600182019050919050565b7f4e487b7100000000000000000000000000000000000000000000000000000000600052601160045260246000fd5b7f4e487b7100000000000000000000000000000000000000000000000000000000600052601260045260246000fd5b7f4e487b7100000000000000000000000000000000000000000000000000000000600052604160045260246000fd5b61326d81613134565b811461327857600080fd5b50565b61328481613146565b811461328f57600080fd5b50565b6002811061329f57600080fd5b50565b6132ab81613172565b81146132b657600080fd5b5056fea2646970667358221220a0db5c7c150f43eeb0a5d8e892bd5978fae52656a39cfc3e330f7c75b214218564736f6c63430008000033",
  "immutableReferences": {},
  "source": "// SPDX-License-Identifier: UNLICENSED\npragma solidity ^0.8.0;\nimport \"./IERC20.sol\";\nimport \"./Irouter.sol\";\n\ncontract Multiswap {\n    Irouter router;\n    IERC20 erc20;\n    address public contractOwner;\n    address public constant WETH = 0x21be370D5312f44cB42ce377BC9b8a0cEF1A4C83; // wFTM\n    // address public constant WETH = 0xC02aaA39b223FE8D0A0e5C4F27eAD9083C756Cc2; // wETH\n\n    address NATIVE_ADDRESS_SIMULATION =\n        0x0000000000000000000000000000000000000000;\n\n    struct SwapObject {\n        address tokenAddress;\n        uint256 amount;\n    }\n\n    enum ToAddress {\n        Sender,\n        Contract\n    }\n\n    event SwapEthForTokensEvent(uint256 swapFromAmount, SwapObject[] swapTo);\n    event SwapTokensForEthEvent(SwapObject[] swapFrom, uint256 swapToAmount);\n    event SwapTokensForTokensEvent(SwapObject[] swapFrom, SwapObject[] swapTo);\n    event SwapTokensForTokensAndEthEvent(SwapObject[] swapFrom, SwapObject[] swapTo);\n    event SwapEthAndTokensForTokensEvent(SwapObject[] swapFrom, SwapObject[] swapTo);\n\n    constructor(address _router) {\n        // for now, we put the default router; in the future, we will inidicate in code which to use\n        contractOwner = msg.sender;\n        router = Irouter(_router);\n    }\n\n    // checks whether the user has given allowance to the contract\n    function allowanceERC20(address token) external view returns (uint256) {\n        return IERC20(token).allowance(msg.sender, address(this));\n    }\n\n    // ETH -> ERC20s general function\n    function internalSwapEthForMultipleTokensByPercent(\n        ToAddress toAddress,\n        uint256 inputtedEthAmountFromContract,\n        address[] memory poolAddresses,\n        uint256[] memory percentForEachToken,\n        bool emitEvent\n    )\n        public\n        payable\n        correctPercentageInput(percentForEachToken)\n        checkArraysMatch(poolAddresses, percentForEachToken)\n        returns (uint256 ethAmount, SwapObject[] memory swapTo)\n    {\n        swapTo = new SwapObject[](poolAddresses.length);\n        address to;\n\n        if (toAddress == ToAddress.Sender) {\n            to = msg.sender;\n            if(inputtedEthAmountFromContract == 0){\n                ethAmount = msg.value;\n            } else{\n                ethAmount = inputtedEthAmountFromContract;\n            }\n        }\n        require(ethAmount > 0, \"Error: input amount must be more than 0 ETH\");\n        if (toAddress == ToAddress.Contract) {\n            to = address(this);\n            ethAmount = inputtedEthAmountFromContract;\n        }\n\n        for (uint256 i; i < poolAddresses.length; i++) {\n            address[] memory path = new address[](2);\n            path[0] = WETH;\n            path[1] = poolAddresses[i];\n            // router.swapExactETHForTokens(amountOutMin, path, to, deadline);\n            uint256 tokenAmount = router.swapExactETHForTokens{\n                value: (ethAmount * percentForEachToken[i]) / 10000\n            }(1, path, to, block.timestamp)[1];\n            SwapObject memory swapObject = SwapObject(path[1], tokenAmount);\n            swapTo[i] = swapObject;\n        }\n        if (emitEvent) {\n            emit SwapEthForTokensEvent(ethAmount, swapTo);\n        }\n    }\n\n    // ERC20s -> ETH general function\n    function internalSwapMultipleTokensForEth(\n        ToAddress toAddress,\n        address[] memory poolAddresses,\n        uint256[] memory amountForEachTokens,\n        bool emitEvent\n    )\n        public\n        checkArraysMatch(poolAddresses, amountForEachTokens)\n        swapFromAmountsGreaterThanZero(amountForEachTokens)\n        returns (SwapObject[] memory swapFrom, uint256 ethAmount)\n    {\n        swapFrom = new SwapObject[](poolAddresses.length);\n        address to;\n\n        if (toAddress == ToAddress.Sender) {\n            to = msg.sender;\n        }\n        if (toAddress == ToAddress.Contract) {\n            to = address(this);\n        }\n\n        for (uint256 i; i < poolAddresses.length; i++) {\n            address[] memory path = new address[](2);\n            path[0] = poolAddresses[i];\n            path[1] = WETH;\n\n            // get the user to send ERC20 tokens to the smart contract\n            IERC20(poolAddresses[i]).transferFrom(\n                msg.sender,\n                address(this),\n                amountForEachTokens[i]\n            );\n\n            // get the smart contract to approve sending the erc20 token to the router\n            IERC20(poolAddresses[i]).approve(\n                address(router),\n                amountForEachTokens[i]\n            );\n\n            // swap the ERC20 token for ETH\n            uint256 ethFromSwap = router.swapExactTokensForETH(\n                amountForEachTokens[i],\n                1,\n                path,\n                to,\n                block.timestamp\n            )[1];\n            ethAmount += ethFromSwap;\n            SwapObject memory swapObject = SwapObject(path[0], ethFromSwap);\n            swapFrom[i] = swapObject;\n        }\n        if (emitEvent) {\n            emit SwapTokensForEthEvent(swapFrom, ethAmount);\n        }\n    }\n\n    function getAmountsOutEthForMultipleTokensByPercent(\n        uint256 ethAmount,\n        address[] memory poolAddresses,\n        uint256[] memory percentForEachToken\n    )\n        public\n        view\n        checkArraysMatch(poolAddresses, percentForEachToken)\n        returns (uint256[] memory)\n    {\n        uint256[] memory returnArray = new uint256[](poolAddresses.length);\n\n        for (uint256 i; i < poolAddresses.length; i++) {\n            address[] memory path = new address[](2);\n            path[0] = WETH;\n            path[1] = poolAddresses[i];\n            uint256 tokenAmount = router.getAmountsOut(\n                (ethAmount * percentForEachToken[i]) / 10000,\n                path\n            )[1];\n            returnArray[i] = (tokenAmount);\n        }\n        return returnArray;\n    }\n\n    // Note: event emission is the one that displays the successful swap text on frontend\n    // 1. ETH -> ERC20s [tested and works]\n    function swapEthForMultipleTokensByPercent(\n        address[] memory poolAddresses,\n        uint256[] memory percentForEachToken\n    ) public payable returns (uint256, SwapObject[] memory) {\n        return\n            internalSwapEthForMultipleTokensByPercent(\n                ToAddress.Sender,\n                0,\n                poolAddresses,\n                percentForEachToken,\n                true\n            );\n    }\n\n    // 2. ERC20s -> ETH [tested and works]\n    function swapMultipleTokensForEth(\n        address[] memory poolAddresses,\n        uint256[] memory amountForEachTokens\n    ) public returns (SwapObject[] memory, uint256) {\n        return\n            internalSwapMultipleTokensForEth(\n                ToAddress.Sender,\n                poolAddresses,\n                amountForEachTokens,\n                true\n            );\n    }\n\n    // 3. ERC20(s) -> ERC20(s)\n    function swapMultipleTokensForMultipleTokensByPercent(\n        address[] memory poolAddressesIn,\n        uint256[] memory amountForEachTokensIn,\n        address[] memory poolAddressesOut,\n        uint256[] memory percentForEachTokenOut\n    )\n        public\n        returns (SwapObject[] memory swapFrom, SwapObject[] memory swapTo)\n    {\n        uint256 ethReceivedFromSwap;\n        // swap ERC20s -> ETH and sends the ETH to this smart contract\n        (swapFrom, ethReceivedFromSwap) = internalSwapMultipleTokensForEth(\n            ToAddress.Contract,\n            poolAddressesIn,\n            amountForEachTokensIn,\n            false\n        );\n\n        // swap ETH -> ERC20s and sends the ERC20 to the user\n        (, swapTo) = internalSwapEthForMultipleTokensByPercent(\n            ToAddress.Sender,\n            ethReceivedFromSwap,\n            poolAddressesOut,\n            percentForEachTokenOut,\n            false\n        );\n        emit SwapTokensForTokensEvent(swapFrom, swapTo);\n    }\n\n    // 4. ERC20(s) -> ETH + ERC20(s)\n    function swapMultipleTokensForMultipleTokensAndEthByPercent(\n        address[] memory _poolAddressesIn,\n        uint256[] memory _amountForEachTokensIn,\n        address[] memory _poolAddressesOut,\n        uint256[] memory _percentForEachTokenOut\n    )\n        public\n        lastIndexOfAddressArrayMustBe0x0(_poolAddressesOut)\n        returns (SwapObject[] memory swapFrom, SwapObject[] memory swapTo)\n    {\n        /*\n        For the front end, maybe we put 0x0 as the token address to represent native assets\n        On the front end, when we get the the array of swap from and swap to,\n        we should rearrange the array such that for swapTo (i.e. poolAddressesOut and percentForEachTokenOut),\n        the native asset (e.g. ETH) that is represented by 0x0 should be at the last index.\n        Meaning to say that that the simulated address and amount for ETH will be the last index in the 2\n        arrays: poolAddressesOut and percentForEachTokenOut.\n        Then, when we get the return values we rearrange it back to the original order and display on frontend\n        */\n        address[] memory tempPoolAddressesOut = copyAddressArrayTillSecondLastIndex(_poolAddressesOut);\n        uint256[] memory tempPercentForEachTokenOut = copyIntArrayTillSecondLastIndex(_percentForEachTokenOut);\n\n        uint256 ethReceivedFromSwap;\n        (swapFrom, ethReceivedFromSwap) = internalSwapMultipleTokensForEth(\n            ToAddress.Contract,\n            _poolAddressesIn,\n            _amountForEachTokensIn,\n            false\n        );\n        uint256 returnEthAmount = ethReceivedFromSwap*_percentForEachTokenOut[_percentForEachTokenOut.length-1]/10000;\n        \n        SwapObject[] memory swapToTemp;\n        (, swapToTemp) = internalSwapEthForMultipleTokensByPercent(\n                ToAddress.Sender,\n                (ethReceivedFromSwap-returnEthAmount),\n                tempPoolAddressesOut,\n                tempPercentForEachTokenOut,\n                false\n            );\n        // push the 'eth' simulation into swapTo object that will be return and emitted\n        SwapObject memory swapObject = SwapObject(NATIVE_ADDRESS_SIMULATION, returnEthAmount);\n        swapTo = copyAndPushToSwapObjectArray(swapToTemp, swapObject); \n        emit SwapTokensForTokensAndEthEvent(swapFrom,swapTo);\n    }\n\n    // 5. ETH + ERC20 -> ERC20(s)\n    function swapTokensAndEthForMultipleTokensByPercent(\n        address[] memory _poolAddressesIn,\n        uint256[] memory _amountForEachTokensIn,\n        address[] memory _poolAddressesOut,\n        uint256[] memory _percentForEachTokenOut\n    )\n        public payable\n        lastIndexOfAddressArrayMustBe0x0(_poolAddressesIn)\n        returns (SwapObject[] memory swapFrom, SwapObject[] memory swapTo)\n    {\n        /*\n        Same concept as swapMultipleTokensForMultipleTokensAndEthByPercent,\n        we place eth at the back and simulate it with 0x. Then ensure order on frontend is same as input on frontend        \n        */\n        uint256 userInputtedEthAmount = _amountForEachTokensIn[_amountForEachTokensIn.length-1];\n        require(userInputtedEthAmount == msg.value, \"Amount given must equal to the inputted ETH amount\");\n\n        address[] memory tempPoolAddressesIn = copyAddressArrayTillSecondLastIndex(_poolAddressesIn);\n        uint256[] memory tempPercentForEachTokenIn = copyIntArrayTillSecondLastIndex(_amountForEachTokensIn);\n\n        uint256 ethReceivedFromSwap;\n        SwapObject[] memory swapFromTemp;\n        (swapFromTemp, ethReceivedFromSwap) = internalSwapMultipleTokensForEth(\n                ToAddress.Contract,\n                tempPoolAddressesIn,\n                tempPercentForEachTokenIn,\n                false\n            );\n\n        // push the 'eth' simulation into swapFrom object that will be return and emitted\n        SwapObject memory swapObject = SwapObject(NATIVE_ADDRESS_SIMULATION, userInputtedEthAmount);\n        swapFrom = copyAndPushToSwapObjectArray(swapFromTemp, swapObject); \n\n        (, swapTo) = internalSwapEthForMultipleTokensByPercent(\n                ToAddress.Sender,\n                (ethReceivedFromSwap + userInputtedEthAmount),\n                _poolAddressesOut,\n                _percentForEachTokenOut,\n                false\n            );\n\n        //\n        emit SwapEthAndTokensForTokensEvent(swapFrom,swapTo);\n    }\n\n    function copyAndPushToSwapObjectArray(SwapObject[] memory _array, SwapObject memory swapObjectToPush)\n        internal\n        pure\n        returns (SwapObject[] memory)\n    {\n        require(_array.length > 0, \"Array length must be greater than zero\");\n        SwapObject[] memory newArray = new SwapObject[](_array.length+1);\n        for (uint256 i = 0; i < _array.length - 1; i++) {\n            newArray[i] = _array[i];\n        }\n        newArray[_array.length] = swapObjectToPush;\n        return newArray;\n    }\n\n    function copyIntArrayTillSecondLastIndex(uint256[] memory _array)\n        internal\n        pure\n        returns (uint256[] memory)\n    {\n        require(_array.length > 0, \"Array length must be greater than zero\");\n        uint256[] memory newArray = new uint256[](_array.length - 1);\n        for (uint256 i = 0; i < _array.length - 1; i++) {\n            newArray[i] = _array[i];\n        }\n        return newArray;\n    }\n\n    function copyAddressArrayTillSecondLastIndex(address[] memory _array)\n        internal\n        pure\n        returns (address[] memory)\n    {\n        require(_array.length > 0, \"Array length must be greater than zero\");\n        address[] memory newArray = new address[](_array.length - 1);\n        for (uint256 i = 0; i < _array.length - 1; i++) {\n            newArray[i] = _array[i];\n        }\n        return newArray;\n    }\n\n    modifier correctPercentageInput(uint256[] memory percentForEachToken) {\n        uint256 amount;\n        bool arrayContainsZero = false;\n        for (uint256 i; i < percentForEachToken.length; i++) {\n            amount += percentForEachToken[i];\n            if(percentForEachToken[i] == 0){\n                arrayContainsZero = true;\n            }\n        }\n        require(\n            amount == 10000,\n            \"Error: percentage array doesn't add up to 100% or 10,000bps\"\n        );\n        require(arrayContainsZero == false);\n        _;\n    }\n\n\n\n    modifier checkArraysMatch(\n        address[] memory poolAddresses,\n        uint256[] memory percentForEachToken\n    ) {\n        require(\n            poolAddresses.length == percentForEachToken.length,\n            \"Error: pool and percentage array doesn't match\"\n        );\n        _;\n    }\n\n    modifier swapFromAmountsGreaterThanZero(\n        uint256[] memory amountForEachTokens\n    ) {\n        bool allGreaterThanZero = true;\n        for (uint256 i; i < amountForEachTokens.length; i++) {\n            if (amountForEachTokens[i] <= 0) {\n                allGreaterThanZero = false;\n            }\n        }\n        require(allGreaterThanZero);\n        _;\n    }\n\n    modifier lastIndexOfAddressArrayMustBe0x0(\n        address[] memory poolAddresses\n    ){\n        require(poolAddresses[poolAddresses.length-1] == NATIVE_ADDRESS_SIMULATION);\n        _;\n    }\n}\n",
  "sourcePath": "/Users/denlie/Desktop/Coding/personal/multi-swap/src/contracts/Multiswap.sol",
  "compiler": {
    "name": "solc",
    "version": "0.8.0+commit.c7dfd78e.Emscripten.clang"
  },
  "schemaVersion": "3.4.8",
  "updatedAt": "2023-02-11T04:50:40.402Z",
  "networkType": "ethereum",
  "devdoc": {
    "kind": "dev",
    "methods": {},
    "version": 1
  },
  "userdoc": {
    "kind": "user",
    "methods": {},
    "version": 1
  }
}