{
  "contractName": "Multiswap",
  "abi": [
    {
      "inputs": [
        {
          "internalType": "address",
          "name": "_router",
          "type": "address"
        }
      ],
      "stateMutability": "nonpayable",
      "type": "constructor"
    },
    {
      "inputs": [],
      "name": "WETH",
      "outputs": [
        {
          "internalType": "address",
          "name": "",
          "type": "address"
        }
      ],
      "stateMutability": "view",
      "type": "function",
      "constant": true
    },
    {
      "inputs": [],
      "name": "owner",
      "outputs": [
        {
          "internalType": "address",
          "name": "",
          "type": "address"
        }
      ],
      "stateMutability": "view",
      "type": "function",
      "constant": true
    },
    {
      "inputs": [
        {
          "internalType": "address[]",
          "name": "poolAddresses",
          "type": "address[]"
        },
        {
          "internalType": "uint256[]",
          "name": "percentForEachToken",
          "type": "uint256[]"
        }
      ],
      "name": "swapEthForMultipleTokensByPercent",
      "outputs": [],
      "stateMutability": "payable",
      "type": "function",
      "payable": true
    },
    {
      "inputs": [],
      "name": "getAmountsArray",
      "outputs": [
        {
          "internalType": "uint256[]",
          "name": "",
          "type": "uint256[]"
        }
      ],
      "stateMutability": "view",
      "type": "function",
      "constant": true
    }
  ],
  "bytecode": "0x60806040523480156200001157600080fd5b50604051620010ad380380620010ad833981810160405281019062000037919062000129565b33600260006101000a81548173ffffffffffffffffffffffffffffffffffffffff021916908373ffffffffffffffffffffffffffffffffffffffff160217905550806000806101000a81548173ffffffffffffffffffffffffffffffffffffffff021916908373ffffffffffffffffffffffffffffffffffffffff160217905550506200015b565b600080fd5b600073ffffffffffffffffffffffffffffffffffffffff82169050919050565b6000620000f182620000c4565b9050919050565b6200010381620000e4565b81146200010f57600080fd5b50565b6000815190506200012381620000f8565b92915050565b600060208284031215620001425762000141620000bf565b5b6000620001528482850162000112565b91505092915050565b610f42806200016b6000396000f3fe60806040526004361061003f5760003560e01c806305d07033146100445780636c3352561461006f5780638da5cb5b1461008b578063ad5c4648146100b6575b600080fd5b34801561005057600080fd5b506100596100e1565b6040516100669190610606565b60405180910390f35b610089600480360381019061008491906108e2565b610139565b005b34801561009757600080fd5b506100a06104c2565b6040516100ad9190610969565b60405180910390f35b3480156100c257600080fd5b506100cb6104e8565b6040516100d89190610969565b60405180910390f35b6060600380548060200260200160405190810160405280929190818152602001828054801561012f57602002820191906000526020600020905b81548152602001906001019080831161011b575b5050505050905090565b806000805b82518110156101825782818151811061015a57610159610984565b5b60200260200101518261016d91906109e2565b9150808061017a90610a16565b91505061013e565b5061271081146101c7576040517f08c379a00000000000000000000000000000000000000000000000000000000081526004016101be90610ae1565b60405180910390fd5b825184511461020b576040517f08c379a000000000000000000000000000000000000000000000000000000000815260040161020290610b73565b60405180910390fd5b6000341161024e576040517f08c379a000000000000000000000000000000000000000000000000000000000815260040161024590610bdf565b60405180910390fd5b6003600061025c9190610500565b60005b84518110156104bb576000600267ffffffffffffffff81111561028557610284610652565b5b6040519080825280602002602001820160405280156102b35781602001602082028036833780820191505090505b5090507321be370d5312f44cb42ce377bc9b8a0cef1a4c83816000815181106102df576102de610984565b5b602002602001019073ffffffffffffffffffffffffffffffffffffffff16908173ffffffffffffffffffffffffffffffffffffffff168152505085828151811061032c5761032b610984565b5b60200260200101518160018151811061034857610347610984565b5b602002602001019073ffffffffffffffffffffffffffffffffffffffff16908173ffffffffffffffffffffffffffffffffffffffff168152505060008060009054906101000a900473ffffffffffffffffffffffffffffffffffffffff1673ffffffffffffffffffffffffffffffffffffffff16637ff36ab56127108886815181106103d7576103d6610984565b5b6020026020010151346103ea9190610bff565b6103f49190610c88565b60018533426040518663ffffffff1660e01b81526004016104189493929190610dcb565b60006040518083038185885af1158015610436573d6000803e3d6000fd5b50505050506040513d6000823e3d601f19601f820116820180604052508101906104609190610ec3565b60018151811061047357610472610984565b5b602002602001015190506003819080600181540180825580915050600190039060005260206000200160009091909190915055505080806104b390610a16565b91505061025f565b5050505050565b600260009054906101000a900473ffffffffffffffffffffffffffffffffffffffff1681565b7321be370d5312f44cb42ce377bc9b8a0cef1a4c8381565b508054600082559060005260206000209081019061051e9190610521565b50565b5b8082111561053a576000816000905550600101610522565b5090565b600081519050919050565b600082825260208201905092915050565b6000819050602082019050919050565b6000819050919050565b61057d8161056a565b82525050565b600061058f8383610574565b60208301905092915050565b6000602082019050919050565b60006105b38261053e565b6105bd8185610549565b93506105c88361055a565b8060005b838110156105f95781516105e08882610583565b97506105eb8361059b565b9250506001810190506105cc565b5085935050505092915050565b6000602082019050818103600083015261062081846105a8565b905092915050565b6000604051905090565b600080fd5b600080fd5b600080fd5b6000601f19601f8301169050919050565b7f4e487b7100000000000000000000000000000000000000000000000000000000600052604160045260246000fd5b61068a82610641565b810181811067ffffffffffffffff821117156106a9576106a8610652565b5b80604052505050565b60006106bc610628565b90506106c88282610681565b919050565b600067ffffffffffffffff8211156106e8576106e7610652565b5b602082029050602081019050919050565b600080fd5b600073ffffffffffffffffffffffffffffffffffffffff82169050919050565b6000610729826106fe565b9050919050565b6107398161071e565b811461074457600080fd5b50565b60008135905061075681610730565b92915050565b600061076f61076a846106cd565b6106b2565b90508083825260208201905060208402830185811115610792576107916106f9565b5b835b818110156107bb57806107a78882610747565b845260208401935050602081019050610794565b5050509392505050565b600082601f8301126107da576107d961063c565b5b81356107ea84826020860161075c565b91505092915050565b600067ffffffffffffffff82111561080e5761080d610652565b5b602082029050602081019050919050565b6108288161056a565b811461083357600080fd5b50565b6000813590506108458161081f565b92915050565b600061085e610859846107f3565b6106b2565b90508083825260208201905060208402830185811115610881576108806106f9565b5b835b818110156108aa57806108968882610836565b845260208401935050602081019050610883565b5050509392505050565b600082601f8301126108c9576108c861063c565b5b81356108d984826020860161084b565b91505092915050565b600080604083850312156108f9576108f8610632565b5b600083013567ffffffffffffffff81111561091757610916610637565b5b610923858286016107c5565b925050602083013567ffffffffffffffff81111561094457610943610637565b5b610950858286016108b4565b9150509250929050565b6109638161071e565b82525050565b600060208201905061097e600083018461095a565b92915050565b7f4e487b7100000000000000000000000000000000000000000000000000000000600052603260045260246000fd5b7f4e487b7100000000000000000000000000000000000000000000000000000000600052601160045260246000fd5b60006109ed8261056a565b91506109f88361056a565b9250828201905080821115610a1057610a0f6109b3565b5b92915050565b6000610a218261056a565b91507fffffffffffffffffffffffffffffffffffffffffffffffffffffffffffffffff8203610a5357610a526109b3565b5b600182019050919050565b600082825260208201905092915050565b7f4572726f723a2070657263656e7461676520617272617920646f65736e27742060008201527f61646420757020746f2031303025206f722031302c3030306270730000000000602082015250565b6000610acb603b83610a5e565b9150610ad682610a6f565b604082019050919050565b60006020820190508181036000830152610afa81610abe565b9050919050565b7f4572726f723a20706f6f6c20616e642070657263656e7461676520617272617960008201527f20646f65736e74206d6174636800000000000000000000000000000000000000602082015250565b6000610b5d602d83610a5e565b9150610b6882610b01565b604082019050919050565b60006020820190508181036000830152610b8c81610b50565b9050919050565b7f4572726f723a206d757374206265206d6f7265207468616e2030204554480000600082015250565b6000610bc9601e83610a5e565b9150610bd482610b93565b602082019050919050565b60006020820190508181036000830152610bf881610bbc565b9050919050565b6000610c0a8261056a565b9150610c158361056a565b9250817fffffffffffffffffffffffffffffffffffffffffffffffffffffffffffffffff0483118215151615610c4e57610c4d6109b3565b5b828202905092915050565b7f4e487b7100000000000000000000000000000000000000000000000000000000600052601260045260246000fd5b6000610c938261056a565b9150610c9e8361056a565b925082610cae57610cad610c59565b5b828204905092915050565b6000819050919050565b6000819050919050565b6000610ce8610ce3610cde84610cb9565b610cc3565b61056a565b9050919050565b610cf881610ccd565b82525050565b600081519050919050565b600082825260208201905092915050565b6000819050602082019050919050565b610d338161071e565b82525050565b6000610d458383610d2a565b60208301905092915050565b6000602082019050919050565b6000610d6982610cfe565b610d738185610d09565b9350610d7e83610d1a565b8060005b83811015610daf578151610d968882610d39565b9750610da183610d51565b925050600181019050610d82565b5085935050505092915050565b610dc58161056a565b82525050565b6000608082019050610de06000830187610cef565b8181036020830152610df28186610d5e565b9050610e01604083018561095a565b610e0e6060830184610dbc565b95945050505050565b600081519050610e268161081f565b92915050565b6000610e3f610e3a846107f3565b6106b2565b90508083825260208201905060208402830185811115610e6257610e616106f9565b5b835b81811015610e8b5780610e778882610e17565b845260208401935050602081019050610e64565b5050509392505050565b600082601f830112610eaa57610ea961063c565b5b8151610eba848260208601610e2c565b91505092915050565b600060208284031215610ed957610ed8610632565b5b600082015167ffffffffffffffff811115610ef757610ef6610637565b5b610f0384828501610e95565b9150509291505056fea26469706673582212209abc9fa64d03fd63c985ba90aca2a2f8033abefebb74e32d6b7a44e0f36d735364736f6c63430008100033",
  "immutableReferences": {},
  "source": "// SPDX-License-Identifier: UNLICENSED\r\n\r\npragma solidity ^0.8.0;\r\nimport \"./IERC20.sol\";\r\nimport \"./Irouter.sol\";\r\n\r\ncontract Multiswap {\r\n    Irouter router;\r\n    IERC20 erc20;\r\n    address public owner;\r\n    address public constant WETH = 0x21be370D5312f44cB42ce377BC9b8a0cEF1A4C83;\r\n\r\n    uint256[] amountsArray;\r\n\r\n    constructor(address _router) {\r\n        // for now, we put the default router; in the future, we will inidicate in code which to use\r\n        owner = msg.sender;\r\n        router = Irouter(_router);\r\n    }\r\n\r\n    // swap eth by percentage for another token\r\n    // 1~10000\r\n    // *** use memory or calldata ??? which is better\r\n    function swapEthForMultipleTokensByPercent(\r\n        address[] memory poolAddresses,\r\n        uint256[] memory percentForEachToken\r\n    ) public payable correctPercentageInput(percentForEachToken) {\r\n        require(\r\n            poolAddresses.length == percentForEachToken.length,\r\n            \"Error: pool and percentage array doesnt match\"\r\n        );\r\n        require(msg.value > 0, \"Error: must be more than 0 ETH\");\r\n\r\n        delete amountsArray; // for test\r\n\r\n        for (uint256 i; i < poolAddresses.length; i++) {\r\n            address[] memory path = new address[](2);\r\n            path[0] = WETH;\r\n            path[1] = poolAddresses[i];\r\n            // router.swapExactETHForTokens(amountOutMin, path, to, deadline);\r\n            uint256 tokenAmount = router.swapExactETHForTokens{\r\n                value: (msg.value * percentForEachToken[i]) / 10000\r\n            }(1, path, msg.sender, block.timestamp)[1];\r\n            amountsArray.push(tokenAmount);\r\n        }\r\n    }\r\n\r\n    function getAmountsArray() public view returns (uint256[] memory) {\r\n        return amountsArray;\r\n    }\r\n\r\n    modifier correctPercentageInput(uint256[] memory percentForEachToken) {\r\n        uint256 amount;\r\n        for (uint256 i; i < percentForEachToken.length; i++) {\r\n            amount += percentForEachToken[i];\r\n        }\r\n        require(\r\n            amount == 10000,\r\n            \"Error: percentage array doesn't add up to 100% or 10,000bps\"\r\n        );\r\n        _;\r\n    }\r\n}\r\n",
  "sourcePath": "C:\\Users\\Denli\\Desktop\\CodeGod\\Projects\\multi-swap\\src\\contracts\\Multiswap.sol",
  "compiler": {
    "name": "solc",
    "version": "0.8.16+commit.07a7930e.Emscripten.clang"
  },
  "schemaVersion": "3.4.3",
  "updatedAt": "2022-08-18T03:22:00.777Z",
  "networkType": "ethereum",
  "devdoc": {
    "kind": "dev",
    "methods": {},
    "version": 1
  },
  "userdoc": {
    "kind": "user",
    "methods": {},
    "version": 1
  }
}